:020000040000FA
:040000000DEF00F010
:0400080078EF87F016
:06001800FF001AEF87F063
:10BFDE0000FF0FFE0FFE0FFE0FFE0FFE0FFE0FFEF9
:10BFEE000FFE0FFE0FFE0FFE0FFE0FFE0FFE0FFEDB
:10BFFE000FFE0FFE0FFE0FFE0FFE0FFE0FFE0FFECB
:10C00E000FFE0FFE0FFE0FFE0FFE0FFE0FFE0FFEBA
:10C01E000FFE0FFE0FFE0FFE0FFE0FFE0FFE0FFEAA
:10C02E000FFE0FFD0FFD0FFD0FFD0FFD0FFD0FFDA1
:10C03E000FFD0FFD0FFD0FFD0FFD0FFD0FFD0FFD92
:10C04E000FFD0FFD0FFC0FFC0FFC0FFC0FFC0FFC88
:10C05E000FFC0FFC0FFC0FFC0FFC0FFC0FFC0FFB7B
:10C06E000FFB0FFB0FFB0FFB0FFB0FFB0FFB0FFB72
:10C07E000FFB0FFB0FFA0FFA0FFA0FFA0FFA0FFA68
:10C08E000FFA0FFA0FFA0FFA0FF90FF90FF90FF95E
:10C09E000FF90FF90FF90FF90FF80FF80FF80FF856
:10C0AE000FF80FF80FF80FF80FF70FF70FF70FF74E
:10C0BE000FF70FF70FF70FF70FF60FF60FF60FF646
:10C0CE000FF60FF60FF60FF50FF50FF50FF50FF53F
:10C0DE000FF50FF40FF40FF40FF40FF40FF40FF439
:10C0EE000FF30FF30FF30FF30FF30FF30FF20FF234
:10C0FE000FF20FF20FF20FF10FF10FF10FF10FF12F
:10C10E000FF10FF00FF00FF00FF00FF00FEF0FEF2A
:10C11E000FEF0FEF0FEF0FEF0FEE0FEE0FEE0FEE25
:10C12E000FEE0FED0FED0FED0FED0FED0FEC0FEC22
:10C13E000FEC0FEC0FEB0FEB0FEB0FEB0FEB0FEA20
:10C14E000FEA0FEA0FEA0FE90FE90FE90FE90FE91E
:10C15E000FE80FE80FE80FE80FE70FE70FE70FE71D
:10C16E000FE60FE60FE60FE60FE50FE50FE50FE51D
:10C17E000FE40FE40FE40FE40FE30FE30FE30FE31D
:10C18E000FE20FE20FE20FE20FE10FE10FE10FE11D
:10C19E000FE00FE00FE00FE00FDF0FDF0FDF0FDE1E
:10C1AE000FDE0FDE0FDE0FDD0FDD0FDD0FDC0FDC20
:10C1BE000FDC0FDC0FDB0FDB0FDB0FDA0FDA0FDA22
:10C1CE000FDA0FD90FD90FD90FD80FD80FD80FD725
:10C1DE000FD70FD70FD70FD60FD60FD60FD50FD528
:10C1EE000FD50FD40FD40FD40FD30FD30FD30FD22D
:10C1FE000FD20FD20FD10FD10FD10FD00FD00FD032
:10C20E000FCF0FCF0FCF0FCE0FCE0FCE0FCD0FCD37
:10C21E000FCD0FCC0FCC0FCC0FCB0FCB0FCB0FCA3C
:10C22E000FCA0FCA0FC90FC90FC90FC80FC80FC742
:10C23E000FC70FC70FC60FC60FC60FC50FC50FC549
:10C24E000FC40FC40FC30FC30FC30FC20FC20FC251
:10C25E000FC10FC10FC00FC00FC00FBF0FBF0FBE5A
:10C26E000FBE0FBE0FBD0FBD0FBC0FBC0FBC0FBB63
:10C27E000FBB0FBA0FBA0FBA0FB90FB90FB80FB86D
:10C28E000FB80FB70FB70FB60FB60FB60FB50FB576
:10C29E000FB40FB40FB30FB30FB30FB20FB20FB182
:10C2AE000FB10FB10FB00FB00FAF0FAF0FAE0FAE8C
:10C2BE000FAD0FAD0FAD0FAC0FAC0FAB0FAB0FAA99
:10C2CE000FAA0FA90FA90FA90FA80FA80FA70FA7A5
:10C2DE000FA60FA60FA50FA50FA50FA40FA40FA3B2
:10C2EE000FA30FA20FA20FA10FA10FA00FA00F9FC0
:10C2FE000F9F0F9E0F9E0F9D0F9D0F9D0F9C0F9CCE
:10C30E000F9B0F9B0F9A0F9A0F990F990F980F98DB
:10C31E000F970F970F960F960F950F950F940F94EB
:10C32E000F930F930F920F920F910F910F900F90FB
:10C33E000F8F0F8F0F8E0F8E0F8D0F8D0F8C0F8C0B
:10C34E000F8B0F8A0F8A0F890F890F880F880F871F
:10C35E000F870F860F860F850F850F840F840F832F
:10C36E000F830F820F810F810F800F800F7F0F7F42
:10C37E000F7E0F7E0F7D0F7D0F7C0F7B0F7B0F7A55
:10C38E000F7A0F790F790F780F780F770F760F7668
:10C39E000F750F750F740F740F730F720F720F717D
:10C3AE000F710F700F700F6F0F6E0F6E0F6D0F6D91
:10C3BE000F6C0F6C0F6B0F6A0F6A0F690F690F68A6
:10C3CE000F670F670F660F660F650F640F640F63BD
:10C3DE000F630F620F610F610F600F600F5F0F5ED3
:10C3EE000F5E0F5D0F5D0F5C0F5B0F5B0F5A0F5AE9
:10C3FE000F590F580F580F570F560F560F550F5501
:10C40E000F540F530F530F520F510F510F500F4F19
:10C41E000F4F0F4E0F4E0F4D0F4C0F4C0F4B0F4A31
:10C42E000F4A0F490F480F480F470F460F460F454B
:10C43E000F450F440F430F430F420F410F410F4063
:10C44E000F3F0F3F0F3E0F3D0F3D0F3C0F3B0F3B7E
:10C45E000F3A0F390F390F380F370F370F360F3599
:10C46E000F350F340F330F320F320F310F300F30B5
:10C47E000F2F0F2E0F2E0F2D0F2C0F2C0F2B0F2AD1
:10C48E000F290F290F280F270F270F260F250F25EE
:10C49E000F240F230F220F220F210F200F200F1F0B
:10C4AE000F1E0F1D0F1D0F1C0F1B0F1B0F1A0F1929
:10C4BE000F180F180F170F160F160F150F140F1347
:10C4CE000F130F120F110F100F100F0F0F0E0F0D66
:10C4DE000F0D0F0C0F0B0F0B0F0A0F090F080F0884
:10C4EE000F070F060F050F050F040F030F020F02A4
:10C4FE000F010F000FFF0EFE0EFE0EFD0EFC0EFBCB
:10C50E000EFB0EFA0EF90EF80EF80EF70EF60EF5ED
:10C51E000EF50EF40EF30EF20EF10EF10EF00EEF0E
:10C52E000EEE0EED0EED0EEC0EEB0EEA0EEA0EE931
:10C53E000EE80EE70EE60EE60EE50EE40EE30EE254
:10C54E000EE20EE10EE00EDF0EDE0EDE0EDD0EDC76
:10C55E000EDB0EDA0EDA0ED90ED80ED70ED60ED69A
:10C56E000ED50ED40ED30ED20ED10ED10ED00ECFBE
:10C57E000ECE0ECD0ECD0ECC0ECB0ECA0EC90EC8E3
:10C58E000EC80EC70EC60EC50EC40EC30EC30EC207
:10C59E000EC10EC00EBF0EBE0EBD0EBD0EBC0EBB2E
:10C5AE000EBA0EB90EB80EB80EB70EB60EB50EB454
:10C5BE000EB30EB20EB20EB10EB00EAF0EAE0EAD7B
:10C5CE000EAC0EAC0EAB0EAA0EA90EA80EA70EA6A2
:10C5DE000EA50EA50EA40EA30EA20EA10EA00E9FCA
:10C5EE000E9E0E9E0E9D0E9C0E9B0E9A0E990E98F2
:10C5FE000E970E960E960E950E940E930E920E911B
:10C60E000E900E8F0E8E0E8E0E8D0E8C0E8B0E8A43
:10C61E000E890E880E870E860E850E840E840E836E
:10C62E000E820E810E800E7F0E7E0E7D0E7C0E7B98
:10C63E000E7A0E790E790E780E770E760E750E74C2
:10C64E000E730E720E710E700E6F0E6E0E6D0E6DEF
:10C65E000E6C0E6B0E6A0E690E680E670E660E6518
:10C66E000E640E630E620E610E600E5F0E5E0E5D48
:10C67E000E5C0E5C0E5B0E5A0E590E580E570E5671
:10C68E000E550E540E530E520E510E500E4F0E4EA0
:10C69E000E4D0E4C0E4B0E4A0E490E480E470E46D0
:10C6AE000E450E440E430E420E410E400E400E3FFE
:10C6BE000E3E0E3D0E3C0E3B0E3A0E390E380E3728
:10C6CE000E360E350E340E330E320E310E300E2F58
:10C6DE000E2E0E2D0E2C0E2B0E2A0E290E280E2788
:10C6EE000E260E250E240E230E220E210E200E1FB8
:10C6FE000E1E0E1D0E1C0E1B0E1A0E190E180E17E8
:10C70E000E160E150E140E130E110E100E0F0E0E1B
:10C71E000E0D0E0C0E0B0E0A0E090E080E070E064F
:10C72E000E050E040E030E020E010E000EFF0DFE80
:10C73E000DFD0DFC0DFB0DFA0DF90DF80DF70DF6B7
:10C74E000DF50DF30DF20DF10DF00DEF0DEE0DEDEE
:10C75E000DEC0DEB0DEA0DE90DE80DE70DE60DE51F
:10C76E000DE40DE30DE20DE00DDF0DDE0DDD0DDC54
:10C77E000DDB0DDA0DD90DD80DD70DD60DD50DD487
:10C78E000DD30DD10DD00DCF0DCE0DCD0DCC0DCBBE
:10C79E000DCA0DC90DC80DC70DC60DC40DC30DC2F2
:10C7AE000DC10DC00DBF0DBE0DBD0DBC0DBB0DBA27
:10C7BE000DB80DB70DB60DB50DB40DB30DB20DB15F
:10C7CE000DB00DAF0DAD0DAC0DAB0DAA0DA90DA895
:10C7DE000DA70DA60DA50DA30DA20DA10DA00D9FCC
:10C7EE000D9E0D9D0D9C0D9B0D990D980D970D9603
:10C7FE000D950D940D930D920D900D8F0D8E0D8D3B
:10C80E000D8C0D8B0D8A0D890D870D860D850D8472
:10C81E000D830D820D810D7F0D7E0D7D0D7C0D7BAB
:10C82E000D7A0D790D770D760D750D740D730D72E4
:10C83E000D710D6F0D6E0D6D0D6C0D6B0D6A0D681E
:10C84E000D670D660D650D640D630D620D600D5F58
:10C85E000D5E0D5D0D5C0D5B0D590D580D570D5692
:10C86E000D550D540D520D510D500D4F0D4E0D4CCD
:10C87E000D4B0D4A0D490D480D470D450D440D4309
:10C88E000D420D410D3F0D3E0D3D0D3C0D3B0D3A44
:10C89E000D380D370D360D350D340D320D310D3081
:10C8AE000D2F0D2E0D2C0D2B0D2A0D290D280D26BD
:10C8BE000D250D240D230D220D200D1F0D1E0D1DFA
:10C8CE000D1C0D1A0D190D180D170D160D140D1337
:10C8DE000D120D110D0F0D0E0D0D0D0C0D0B0D0975
:10C8EE000D080D070D060D050D030D020D010D00B2
:10C8FE000DFE0CFD0CFC0CFB0CF90CF80CF70CF6F9
:10C90E000CF50CF30CF20CF10CF00CEE0CED0CEC37
:10C91E000CEB0CE90CE80CE70CE60CE40CE30CE277
:10C92E000CE10CE00CDE0CDD0CDC0CDB0CD90CD8B5
:10C93E000CD70CD60CD40CD30CD20CD10CCF0CCEF5
:10C94E000CCD0CCC0CCA0CC90CC80CC60CC50CC436
:10C95E000CC30CC10CC00CBF0CBE0CBC0CBB0CBA77
:10C96E000CB90CB70CB60CB50CB40CB20CB10CB0B7
:10C97E000CAE0CAD0CAC0CAB0CA90CA80CA70CA5FA
:10C98E000CA40CA30CA20CA00C9F0C9E0C9D0C9B3B
:10C99E000C9A0C990C970C960C950C940C920C917D
:10C9AE000C900C8E0C8D0C8C0C8B0C890C880C87BF
:10C9BE000C850C840C830C810C800C7F0C7E0C7C03
:10C9CE000C7B0C7A0C780C770C760C740C730C7246
:10C9DE000C710C6F0C6E0C6D0C6B0C6A0C690C6789
:10C9EE000C660C650C630C620C610C5F0C5E0C5DCE
:10C9FE000C5C0C5A0C590C580C560C550C540C5211
:10CA0E000C510C500C4E0C4D0C4C0C4A0C490C4855
:10CA1E000C460C450C440C420C410C400C3E0C3D9B
:10CA2E000C3C0C3A0C390C380C360C350C340C32E0
:10CA3E000C310C300C2E0C2D0C2C0C2A0C290C2825
:10CA4E000C260C250C240C220C210C200C1E0C1D6B
:10CA5E000C1C0C1A0C190C180C160C150C140C12B0
:10CA6E000C110C0F0C0E0C0D0C0B0C0A0C090C07F8
:10CA7E000C060C050C030C020C010CFF0BFE0BFC40
:10CA8E000BFB0BFA0BF80BF70BF60BF40BF30BF28D
:10CA9E000BF00BEF0BED0BEC0BEB0BE90BE80BE7D5
:10CAAE000BE50BE40BE30BE10BE00BDE0BDD0BDC1C
:10CABE000BDA0BD90BD80BD60BD50BD30BD20BD164
:10CACE000BCF0BCE0BCC0BCB0BCA0BC80BC70BC6AD
:10CADE000BC40BC30BC10BC00BBF0BBD0BBC0BBAF6
:10CAEE000BB90BB80BB60BB50BB40BB20BB10BAF3E
:10CAFE000BAE0BAD0BAB0BAA0BA80BA70BA60BA487
:10CB0E000BA30BA10BA00B9F0B9D0B9C0B9A0B99D0
:10CB1E000B980B960B950B930B920B910B8F0B8E19
:10CB2E000B8C0B8B0B8A0B880B870B850B840B8264
:10CB3E000B810B800B7E0B7D0B7B0B7A0B790B77AE
:10CB4E000B760B740B730B720B700B6F0B6D0B6CF8
:10CB5E000B6A0B690B680B660B650B630B620B6044
:10CB6E000B5F0B5E0B5C0B5B0B590B580B560B558F
:10CB7E000B540B520B510B4F0B4E0B4C0B4B0B4ADA
:10CB8E000B480B470B450B440B420B410B400B3E26
:10CB9E000B3D0B3B0B3A0B380B370B360B340B3371
:10CBAE000B310B300B2E0B2D0B2B0B2A0B290B27BE
:10CBBE000B260B240B230B210B200B1E0B1D0B1C0A
:10CBCE000B1A0B190B170B160B140B130B110B1057
:10CBDE000B0F0B0D0B0C0B0A0B090B070B060B04A3
:10CBEE000B030B010B000BFF0AFD0AFC0AFA0AF9F4
:10CBFE000AF70AF60AF40AF30AF10AF00AEF0AED46
:10CC0E000AEC0AEA0AE90AE70AE60AE40AE30AE192
:10CC1E000AE00ADE0ADD0ADB0ADA0AD90AD70AD6E0
:10CC2E000AD40AD30AD10AD00ACE0ACD0ACB0ACA2E
:10CC3E000AC80AC70AC50AC40AC20AC10AC00ABE7D
:10CC4E000ABD0ABB0ABA0AB80AB70AB50AB40AB2CA
:10CC5E000AB10AAF0AAE0AAC0AAB0AA90AA80AA61A
:10CC6E000AA50AA30AA20AA00A9F0A9E0A9C0A9B68
:10CC7E000A990A980A960A950A930A920A900A8FB6
:10CC8E000A8D0A8C0A8A0A890A870A860A840A8306
:10CC9E000A810A800A7E0A7D0A7B0A7A0A780A7756
:10CCAE000A750A740A720A710A6F0A6E0A6C0A6BA6
:10CCBE000A690A680A660A650A630A620A600A5FF6
:10CCCE000A5D0A5C0A5A0A590A570A560A540A5346
:10CCDE000A510A500A4E0A4D0A4B0A4A0A480A4796
:10CCEE000A450A440A420A410A3F0A3E0A3C0A3BE6
:10CCFE000A390A380A360A350A330A320A300A2F36
:10CD0E000A2D0A2C0A2A0A290A270A260A240A2385
:10CD1E000A210A200A1E0A1D0A1B0A1A0A180A16D6
:10CD2E000A150A130A120A100A0F0A0D0A0C0A0A29
:10CD3E000A090A070A060A040A030A010A000AFE79
:10CD4E0009FD09FB09FA09F809F709F509F409F2D1
:10CD5E0009F109EF09ED09EC09EA09E909E709E624
:10CD6E0009E409E309E109E009DE09DD09DB09DA75
:10CD7E0009D809D709D509D409D209D009CF09CDC7
:10CD8E0009CC09CA09C909C709C609C409C309C119
:10CD9E0009C009BE09BD09BB09B909B809B609B56B
:10CDAE0009B309B209B009AF09AD09AC09AA09A9BD
:10CDBE0009A709A609A409A209A1099F099E099C10
:10CDCE00099B099909980996099509930992099061
:10CDDE00098E098D098B098A0988098709850984B5
:10CDEE0009820981097F097D097C097A0979097708
:10CDFE0009760974097309710970096E096D096B59
:10CE0E000969096809660965096309620960095FAC
:10CE1E00095D095B095A0958095709550954095200
:10CE2E000951094F094E094C094A09490947094652
:10CE3E000944094309410940093E093D093B0939A5
:10CE4E00093809360935093309320930092F092DF8
:10CE5E00092B092A0928092709250924092209214C
:10CE6E00091F091D091C091A0919091709160914A0
:10CE7E0009130911090F090E090C090B09090908F3
:10CE8E000906090509030901090009FE08FD08FB49
:10CE9E0008FA08F808F708F508F308F208F008EFA2
:10CEAE0008ED08EC08EA08E808E708E508E408E2F7
:10CEBE0008E108DF08DE08DC08DA08D908D708D64A
:10CECE0008D408D308D108D008CE08CC08CB08C99E
:10CEDE0008C808C608C508C308C108C008BE08BDF2
:10CEEE0008BB08BA08B808B608B508B308B208B047
:10CEFE0008AF08AD08AC08AA08A808A708A508A49A
:10CF0E0008A208A1089F089D089C089A08990897EE
:10CF1E000896089408920891088F088E088C088B42
:10CF2E000889088808860884088308810880087E96
:10CF3E00087D087B087908780876087508730872EA
:10CF4E000870086E086D086B086A0868086708653F
:10CF5E00086308620860085F085D085C085A085894
:10CF6E0008570855085408520851084F084E084CE7
:10CF7E00084A084908470846084408430841083F3C
:10CF8E00083E083C083B0839083808360834083390
:10CF9E0008310830082E082D082B082908280826E5
:10CFAE000825082308220820081E081D081B081A39
:10CFBE00081808170815081308120810080F080D8E
:10CFCE00080C080A080808070805080408020801E2
:10CFDE0008FF07FD07FC07FA07F907F707F607F43E
:10CFEE0007F207F107EF07EE07EC07EB07E907E794
:10CFFE0007E607E407E307E107E007DE07DC07DBE8
:10D00E0007D907D807D607D507D307D107D007CE3C
:10D01E0007CD07CB07CA07C807C607C507C307C290
:10D02E0007C007BF07BD07BB07BA07B807B707B5E5
:10D03E0007B407B207B007AF07AD07AC07AA07A939
:10D04E0007A707A607A407A207A1079F079E079C8D
:10D05E00079B0799079707960794079307910790E1
:10D06E00078E078C078B0789078807860785078336
:10D07E0007810780077E077D077B077A077807768B
:10D08E000775077307720770076F076D076C076ADE
:10D09E00076807670765076407620761075F075D33
:10D0AE00075C075A07590757075607540752075187
:10D0BE00074F074E074C074B0749074807460744DB
:10D0CE00074307410740073E073D073B073907382F
:10D0DE0007360735073307320730072E072D072B84
:10D0EE00072A072807270725072407220720071FD7
:10D0FE00071D071C071A071907170716071407122B
:10D10E000711070F070E070C070B0709070707067E
:10D11E00070407030701070007FE06FD06FB06F9D5
:10D12E0006F806F606F506F306F206F006EF06ED2D
:10D13E0006EB06EA06E806E706E506E406E206E181
:10D14E0006DF06DD06DC06DA06D906D706D606D4D5
:10D15E0006D306D106CF06CE06CC06CB06C906C828
:10D16E0006C606C506C306C106C006BE06BD06BB7C
:10D17E0006BA06B806B706B506B406B206B006AFCE
:10D18E0006AD06AC06AA06A906A706A606A406A321
:10D19E0006A1069F069E069C069B06990698069675
:10D1AE000695069306910690068E068D068B068AC8
:10D1BE00068806870685068406820681067F067D1A
:10D1CE00067C067A0679067706760674067306716D
:10D1DE000670066E066C066B0669066806660665C0
:10D1EE00066306620660065F065D065C065A065812
:10D1FE0006570655065406520651064F064E064C65
:10D20E00064B0649064806460645064306410640B5
:10D21E00063E063D063B063A063806370635063408
:10D22E0006320631062F062E062C062A062906275A
:10D23E0006260624062306210620061E061D061BAC
:10D24E00061A061806170615061406120611060FFC
:10D25E00060D060C060A0609060706060604060350
:10D26E000601060006FE05FD05FB05FA05F805F7A5
:10D27E0005F505F405F205F105EF05EE05EC05EBF8
:10D28E0005E905E805E605E405E305E105E005DE4B
:10D29E0005DD05DB05DA05D805D705D505D405D29C
:10D2AE0005D105CF05CE05CC05CB05C905C805C6EC
:10D2BE0005C505C305C205C005BF05BD05BC05BA3C
:10D2CE0005B905B705B605B405B305B105B005AE8C
:10D2DE0005AD05AB05AA05A805A705A505A405A2DC
:10D2EE0005A1059F059E059C059B0599059805962C
:10D2FE000595059305920590058F058D058C058A7C
:10D30E000589058705860584058305810580057ECB
:10D31E00057D057B057A057805770575057405721B
:10D32E000571056F056E056C056B0569056805666B
:10D33E000565056305620560055F055E055C055BB9
:10D34E000559055805560555055305520550054F07
:10D35E00054D054C054A0549054705460544054357
:10D36E0005410540053E053D053C053A05390537A5
:10D37E0005360534053305310530052E052D052BF3
:10D38E00052A052805270525052405230521052041
:10D39E00051E051D051B051A05180517051505148F
:10D3AE0005120511050F050E050D050B050A0508DD
:10D3BE000507050505040502050105FF04FE04FD2C
:10D3CE0004FB04FA04F804F704F504F404F204F17F
:10D3DE0004EF04EE04ED04EB04EA04E804E704E5CC
:10D3EE0004E404E204E104E004DE04DD04DB04DA18
:10D3FE0004D804D704D504D404D304D104D004CE65
:10D40E0004CD04CB04CA04C804C704C604C404C3B0
:10D41E0004C104C004BE04BD04BC04BA04B904B7FC
:10D42E0004B604B404B304B204B004AF04AD04AC47
:10D43E0004AA04A904A804A604A504A304A204A093
:10D44E00049F049E049C049B0499049804960495DE
:10D45E00049404920491048F048E048C048B048A29
:10D46E000488048704850484048304810480047E74
:10D47E00047D047C047A04790477047604740473BE
:10D48E0004720470046F046D046C046B0469046808
:10D49E0004660465046404620461045F045E045D52
:10D4AE00045B045A0458045704560454045304519C
:10D4BE000450044F044D044C044A044904480446E5
:10D4CE000445044404420441043F043E043D043B2D
:10D4DE00043A043804370436043404330432043076
:10D4EE00042F042D042C042B0429042804260425BF
:10D4FE000424042204210420041E041D041B041A07
:10D50E000419041704160415041304120411040F4D
:10D51E00040E040C040B040A040804070406040495
:10D52E0004030402040004FF03FD03FC03FB03F9E0
:10D53E0003F803F703F503F403F303F103F003EF2A
:10D54E0003ED03EC03EA03E903E803E603E503E472
:10D55E0003E203E103E003DE03DD03DC03DA03D9B8
:10D56E0003D803D603D503D403D203D103D003CEFD
:10D57E0003CD03CC03CA03C903C803C603C503C442
:10D58E0003C203C103C003BE03BD03BC03BA03B988
:10D59E0003B803B603B503B403B203B103B003AECD
:10D5AE0003AD03AC03AA03A903A803A603A503A412
:10D5BE0003A203A103A0039F039D039C039B039956
:10D5CE000398039703950394039303910390038F9A
:10D5DE00038D038C038B038A0388038703860384DE
:10D5EE00038303820380037F037E037D037B037A21
:10D5FE000379037703760375037303720371037064
:10D60E00036E036D036C036A0369036803670365A6
:10D61E000364036303610360035F035E035C035BE8
:10D62E00035A035903570356035503530352035129
:10D63E000350034E034D034C034A0349034803476B
:10D64E0003450344034303420340033F033E033DAC
:10D65E00033B033A033903380336033503340332ED
:10D66E0003310330032F032D032C032B032A03282E
:10D67E000327032603250323032203210320031E6E
:10D68E00031D031C031B031A0318031703160315AC
:10D69E000313031203110310030E030D030C030BEC
:10D6AE00030903080307030603050303030203012B
:10D6BE00030003FE02FD02FC02FB02F902F802F770
:10D6CE0002F602F502F302F202F102F002EF02EDAF
:10D6DE0002EC02EB02EA02E802E702E602E502E4ED
:10D6EE0002E202E102E002DF02DE02DC02DB02DA2B
:10D6FE0002D902D802D602D502D402D302D202D067
:10D70E0002CF02CE02CD02CC02CA02C902C802C7A3
:10D71E0002C602C402C302C202C102C002BF02BDDF
:10D72E0002BC02BB02BA02B902B702B602B502B41B
:10D73E0002B302B202B002AF02AE02AD02AC02AA56
:10D74E0002A902A802A702A602A502A302A202A192
:10D75E0002A0029F029E029C029B029A02990298CC
:10D76E000297029602940293029202910290028F05
:10D77E00028D028C028B028A028902880287028540
:10D78E0002840283028202810280027F027D027C79
:10D79E00027B027A027902780277027502740273B2
:10D7AE00027202710270026F026E026C026B026AEA
:10D7BE000269026802670266026502630262026122
:10D7CE000260025F025E025D025C025B0259025859
:10D7DE000257025602550254025302520251024F90
:10D7EE00024E024D024C024B024A024902480247C7
:10D7FE00024602440243024202410240023F023EFE
:10D80E00023D023C023B023A023802370236023532
:10D81E0002340233023202310230022F022E022D66
:10D82E00022B022A0229022802270226022502249E
:10D83E000223022202210220021F021E021C021BD0
:10D84E00021A021902180217021602150214021306
:10D85E00021202110210020F020E020D020C020B36
:10D86E00020902080207020602050204020302026E
:10D87E000201020002FF01FE01FD01FC01FB01FAA3
:10D88E0001F901F801F701F601F501F401F301F2D6
:10D89E0001F101F001EF01EE01ED01EB01EA01E909
:10D8AE0001E801E701E601E501E401E301E201E13E
:10D8BE0001E001DF01DE01DD01DC01DB01DA01D96E
:10D8CE0001D801D701D601D501D401D301D201D19E
:10D8DE0001D001CF01CE01CD01CC01CB01CA01C9CE
:10D8EE0001C801C701C601C501C401C301C201C1FE
:10D8FE0001C001BF01BE01BE01BD01BC01BB01BA29
:10D90E0001B901B801B701B601B501B401B301B255
:10D91E0001B101B001AF01AE01AD01AC01AB01AA85
:10D92E0001A901A801A701A601A501A401A301A2B5
:10D93E0001A201A101A0019F019E019D019C019BDD
:10D94E00019A01990198019701960195019401930D
:10D95E000192019101910190018F018E018D018C37
:10D96E00018B018A01890188018701860185018564
:10D97E0001840183018201810180017F017E017D8D
:10D98E00017C017B017A017A0179017801770176B8
:10D99E000175017401730172017101700170016FE3
:10D9AE00016E016D016C016B016A0169016801680C
:10D9BE000167016601650164016301620161016035
:10D9CE000160015F015E015D015C015B015A01595D
:10D9DE000159015801570156015501540153015285
:10D9EE00015201510150014F014E014D014C014CAC
:10D9FE00014B014A014901480147014601460145D3
:10DA0E00014401430142014101410140013F013EF8
:10DA1E00013D013C013B013B013A0139013801371F
:10DA2E000136013601350134013301320131013144
:10DA3E000130012F012E012D012D012C012B012A68
:10DA4E00012901280128012701260125012401248D
:10DA5E0001230122012101200120011F011E011DB0
:10DA6E00011C011C011B011A0119011801180117D3
:10DA7E0001160115011401140113011201110111F6
:10DA8E000110010F010E010D010D010C010B010A18
:10DA9E00010901090108010701060106010501043A
:10DAAE0001030103010201010100010001FF00FE5B
:10DABE0000FD00FC00FC00FB00FA00F900F900F884
:10DACE0000F700F600F600F500F400F300F300F2A4
:10DADE0000F100F100F000EF00EE00EE00ED00ECC2
:10DAEE0000EB00EB00EA00E900E800E800E700E6E2
:10DAFE0000E600E500E400E300E300E200E100E1FF
:10DB0E0000E000DF00DE00DE00DD00DC00DC00DB1C
:10DB1E0000DA00D900D900D800D700D700D600D53A
:10DB2E0000D500D400D300D200D200D100D000D056
:10DB3E0000CF00CE00CE00CD00CC00CC00CB00CA72
:10DB4E0000C900C900C800C700C700C600C500C58F
:10DB5E0000C400C300C300C200C100C100C000BFAA
:10DB6E0000BF00BE00BD00BD00BC00BB00BB00BAC4
:10DB7E0000B900B900B800B800B700B600B600B5DD
:10DB8E0000B400B400B300B200B200B100B000B0F7
:10DB9E0000AF00AF00AE00AD00AD00AC00AB00AB0F
:10DBAE0000AA00A900A900A800A800A700A600A628
:10DBBE0000A500A400A400A300A300A200A100A140
:10DBCE0000A000A0009F009E009E009D009D009C56
:10DBDE00009B009B009A009A00990098009800976D
:10DBEE000097009600950095009400940093009283
:10DBFE0000920091009100900090008F008E008E98
:10DC0E00008D008D008C008C008B008A008A0089AC
:10DC1E0000890088008800870086008600850085C0
:10DC2E0000840084008300830082008100810080D4
:10DC3E000080007F007F007E007E007D007D007CE6
:10DC4E00007B007B007A007A0079007900780078FA
:10DC5E00007700770076007600750075007400740A
:10DC6E000073007200720071007100700070006F1E
:10DC7E00006F006E006E006D006D006C006C006B2E
:10DC8E00006B006A006A006900690068006800673E
:10DC9E00006700660066006500650064006400634E
:10DCAE00006300620062006100610061006000605C
:10DCBE00005F005F005E005E005D005D005C005C6A
:10DCCE00005B005B005A005A005900590059005879
:10DCDE000058005700570056005600550055005585
:10DCEE000054005400530053005200520051005192
:10DCFE00005100500050004F004F004E004E004D9E
:10DD0E00004D004D004C004C004B004B004B004AA8
:10DD1E00004A0049004900480048004800470047B3
:10DD2E0000460046004600450045004400440044BD
:10DD3E0000430043004200420042004100410040C7
:10DD4E0000400040003F003F003E003E003E003DD0
:10DD5E00003D003C003C003C003B003B003B003AD9
:10DD6E00003A0039003900390038003800380037E1
:10DD7E0000370037003600360035003500350034E8
:10DD8E0000340034003300330033003200320032EE
:10DD9E00003100310031003000300030002F002FF4
:10DDAE00002F002E002E002E002D002D002D002CF9
:10DDBE00002C002C002B002B002B002A002A002AFE
:10DDCE000029002900290028002800280027002704
:10DDDE000027002700260026002600250025002506
:10DDEE00002400240024002400230023002300220A
:10DDFE00002200220022002100210021002000200C
:10DE0E0000200020001F001F001F001E001E001E0D
:10DE1E00001E001D001D001D001D001C001C001C0E
:10DE2E00001C001B001B001B001B001A001A001A0E
:10DE3E00001A00190019001900190018001800180E
:10DE4E00001800170017001700170016001600160E
:10DE5E00001600150015001500150015001400140D
:10DE6E00001400140013001300130013001300120B
:10DE7E000012001200120011001100110011001109
:10DE8E0000100010001000100010000F000F000F07
:10DE9E00000F000F000F000E000E000E000E000E01
:10DEAE00000D000D000D000D000D000D000C000CFE
:10DEBE00000C000C000C000B000B000B000B000BF9
:10DECE00000B000A000A000A000A000A000A000AF3
:10DEDE0000090009000900090009000900080008EE
:10DEEE0000080008000800080008000700070007E7
:10DEFE0000070007000700070007000600060006DF
:10DF0E0000060006000600060006000500050005D6
:10DF1E0000050005000500050005000400040004CE
:10DF2E0000040004000400040004000400040003C4
:10DF3E0000030003000300030003000300030003BB
:10DF4E0000030003000200020002000200020002B1
:10DF5E0000020002000200020002000200020001A4
:10DF6E00000100010001000100010001000100019B
:10DF7E00000100010001000100010001000100018B
:10DF8E000000000000000000000000000000000083
:10DF9E000000000000000000000000000000000073
:10DFAE000000000000000000000000000000000063
:10DFBE000000000000000000000000000000000053
:10DFCE000000000000000000000000000000000043
:10DFDE000000000000000000000000000000000033
:10DFEE000000000000000000000000000000000023
:10DFFE000000000000000000000000000000000013
:10E00E000000000000000000000000000000000002
:10E01E0000000000000000000000000000000000F2
:10E02E0000000001000100010001000100010001DB
:10E03E0000010001000100010001000100010001CA
:10E04E0000010001000200020002000200020002B4
:10E05E0000020002000200020002000200020003A1
:10E06E00000300030003000300030003000300038A
:10E07E000003000300040004000400040004000474
:10E08E00000400040004000400050005000500055E
:10E09E000005000500050005000600060006000646
:10E0AE00000600060006000600070007000700072E
:10E0BE000007000700070007000800080008000816
:10E0CE0000080008000800090009000900090009FD
:10E0DE000009000A000A000A000A000A000A000AE3
:10E0EE00000B000B000B000B000B000B000C000CC8
:10E0FE00000C000C000C000D000D000D000D000DAD
:10E10E00000D000E000E000E000E000E000F000F90
:10E11E00000F000F000F000F001000100010001075
:10E12E000010001100110011001100110012001258
:10E13E00001200120013001300130013001300143A
:10E14E00001400140014001500150015001500151C
:10E15E0000160016001600160017001700170017FD
:10E16E0000180018001800180019001900190019DD
:10E17E00001A001A001A001A001B001B001B001BBD
:10E18E00001C001C001C001C001D001D001D001D9D
:10E19E00001E001E001E001E001F001F001F00207C
:10E1AE00002000200020002100210021002200225A
:10E1BE000022002200230023002300240024002438
:10E1CE000024002500250025002600260026002715
:10E1DE0000270027002700280028002800290029F2
:10E1EE000029002A002A002A002B002B002B002CCD
:10E1FE00002C002C002D002D002D002E002E002EA8
:10E20E00002F002F002F0030003000300031003181
:10E21E00003100320032003200330033003300345C
:10E22E000034003400350035003500360036003736
:10E23E00003700370038003800380039003900390F
:10E24E00003A003A003B003B003B003C003C003CE7
:10E25E00003D003D003E003E003E003F003F0040BE
:10E26E000040004000410041004200420042004395
:10E27E00004300440044004400450045004600466B
:10E28E000046004700470048004800480049004942
:10E29E00004A004A004B004B004B004C004C004D16
:10E2AE00004D004D004E004E004F004F00500050EC
:10E2BE0000510051005100520052005300530054BF
:10E2CE000054005500550055005600560057005793
:10E2DE0000580058005900590059005A005A005B66
:10E2EE00005B005C005C005D005D005E005E005F38
:10E2FE00005F00600060006100610061006200620A
:10E30E0000630063006400640065006500660066DB
:10E31E00006700670068006800690069006A006AAB
:10E32E00006B006B006C006C006D006D006E006E7B
:10E33E00006F006F0070007000710071007200724B
:10E34E000073007400740075007500760076007717
:10E35E0000770078007800790079007A007A007BE7
:10E36E00007B007C007D007D007E007E007F007FB4
:10E37E000080008000810081008200830083008481
:10E38E00008400850085008600860087008800884E
:10E39E0000890089008A008A008B008C008C008D19
:10E3AE00008D008E008E008F0090009000910091E5
:10E3BE0000920092009300940094009500950096B0
:10E3CE0000970097009800980099009A009A009B79
:10E3DE00009B009C009D009D009E009E009F00A043
:10E3EE0000A000A100A100A200A300A300A400A40D
:10E3FE0000A500A600A600A700A800A800A900A9D5
:10E40E0000AA00AB00AB00AC00AD00AD00AE00AF9B
:10E41E0000AF00B000B000B100B200B200B300B463
:10E42E0000B400B500B600B600B700B800B800B929
:10E43E0000B900BA00BB00BB00BC00BD00BD00BEF1
:10E44E0000BF00BF00C000C100C100C200C300C3B6
:10E45E0000C400C500C500C600C700C700C800C97B
:10E46E0000C900CA00CB00CC00CC00CD00CE00CE3F
:10E47E0000CF00D000D000D100D200D200D300D403
:10E48E0000D500D500D600D700D700D800D900D9C6
:10E49E0000DA00DB00DC00DC00DD00DE00DE00DF89
:10E4AE0000E000E100E100E200E300E300E400E54B
:10E4BE0000E600E600E700E800E800E900EA00EB0D
:10E4CE0000EB00EC00ED00EE00EE00EF00F000F1CE
:10E4DE0000F100F200F300F300F400F500F600F690
:10E4EE0000F700F800F900F900FA00FB00FC00FC50
:10E4FE0000FD00FE00FF000001000101010201030A
:10E50E0001030104010501060106010701080109C5
:10E51E000109010A010B010C010D010D010E010F84
:10E52E000110011101110112011301140114011541
:10E53E0001160117011801180119011A011B011CFE
:10E54E00011C011D011E011F0120012001210122BC
:10E55E000123012401240125012601270128012878
:10E56E000129012A012B012C012D012D012E012F34
:10E57E0001300131013101320133013401350136EF
:10E58E000136013701380139013A013B013B013CAB
:10E59E00013D013E013F0140014101410142014364
:10E5AE000144014501460146014701480149014A1E
:10E5BE00014B014C014C014D014E014F01500151D7
:10E5CE000152015201530154015501560157015890
:10E5DE0001590159015A015B015C015D015E015F48
:10E5EE000160016001610162016301640165016600
:10E5FE000167016801680169016A016B016C016DB7
:10E60E00016E016F0170017001710172017301746D
:10E61E0001750176017701780179017A017A017B22
:10E62E00017C017D017E017F0180018101820183D8
:10E63E000184018501850186018701880189018A8E
:10E64E00018B018C018D018E018F01900191019141
:10E65E0001920193019401950196019701980199F8
:10E66E00019A019B019C019D019E019F01A001A1A8
:10E67E0001A201A201A301A401A501A601A701A85F
:10E68E0001A901AA01AB01AC01AD01AE01AF01B010
:10E69E0001B101B201B301B401B501B601B701B8C0
:10E6AE0001B901BA01BB01BC01BD01BE01BE01BF72
:10E6BE0001C001C101C201C301C401C501C601C728
:10E6CE0001C801C901CA01CB01CC01CD01CE01CFD8
:10E6DE0001D001D101D201D301D401D501D601D788
:10E6EE0001D801D901DA01DB01DC01DD01DE01DF38
:10E6FE0001E001E101E201E301E401E501E601E7E8
:10E70E0001E801E901EA01EB01ED01EE01EF01F093
:10E71E0001F101F201F301F401F501F601F701F83F
:10E72E0001F901FA01FB01FC01FD01FE01FF0100EF
:10E73E000201020202030204020502060207020897
:10E74E000209020B020C020D020E020F0210021140
:10E75E0002120213021402150216021702180219EF
:10E76E00021A021B021C021E021F0220022102229A
:10E77E000223022402250226022702280229022A47
:10E78E00022B022D022E022F0230023102320233F0
:10E79E0002340235023602370238023A023B023C9C
:10E7AE00023D023E023F0240024102420243024447
:10E7BE000246024702480249024A024B024C024DEF
:10E7CE00024E024F02510252025302540255025699
:10E7DE00025702580259025B025C025D025E025F42
:10E7EE0002600261026202630265026602670268EB
:10E7FE000269026A026B026C026E026F0270027193
:10E80E000272027302740275027702780279027A3A
:10E81E00027B027C027D027F0280028102820283E1
:10E82E0002840285028702880289028A028B028C88
:10E83E00028D028F0290029102920293029402962E
:10E84E00029702980299029A029B029C029E029FD4
:10E85E0002A002A102A202A302A502A602A702A87A
:10E86E0002A902AA02AC02AD02AE02AF02B002B21F
:10E87E0002B302B402B502B602B702B902BA02BBC3
:10E88E0002BC02BD02BF02C002C102C202C302C468
:10E89E0002C602C702C802C902CA02CC02CD02CE0B
:10E8AE0002CF02D002D202D302D402D502D602D8AF
:10E8BE0002D902DA02DB02DC02DE02DF02E002E152
:10E8CE0002E202E402E502E602E702E802EA02EBF5
:10E8DE0002EC02ED02EF02F002F102F202F302F597
:10E8EE0002F602F702F802F902FB02FC02FD02FE3A
:10E8FE0002000301030203030305030603070308D3
:10E90E000309030B030C030D030E03100311031273
:10E91E0003130315031603170318031A031B031C13
:10E92E00031D031E032003210322032303250326B5
:10E93E0003270328032A032B032C032D032F033055
:10E94E000331033203340335033603380339033AF4
:10E95E00033B033D033E033F034003420343034493
:10E96E000345034703480349034A034C034D034E33
:10E97E0003500351035203530355035603570359D0
:10E98E00035A035B035C035E035F0360036103636F
:10E99E0003640365036703680369036A036C036D0D
:10E9AE00036E0370037103720373037503760377AB
:10E9BE000379037A037B037D037E037F0380038247
:10E9CE0003830384038603870388038A038B038CE4
:10E9DE00038D038F03900391039303940395039781
:10E9EE0003980399039B039C039D039F03A003A11C
:10E9FE0003A203A403A503A603A803A903AA03ACB9
:10EA0E0003AD03AE03B003B103B203B403B503B653
:10EA1E0003B803B903BA03BC03BD03BE03C003C1ED
:10EA2E0003C203C403C503C603C803C903CA03CC88
:10EA3E0003CD03CE03D003D103D203D403D503D623
:10EA4E0003D803D903DA03DC03DD03DE03E003E1BD
:10EA5E0003E203E403E503E603E803E903EA03EC58
:10EA6E0003ED03EF03F003F103F303F403F503F7F0
:10EA7E0003F803F903FB03FC03FD03FF0300040289
:10EA8E0004030404040604070408040A040B040C1B
:10EA9E00040E040F041104120413041504160417B3
:10EAAE000419041A041B041D041E0420042104224C
:10EABE0004240425042604280429042B042C042DE4
:10EACE00042F04300432043304340436043704387B
:10EADE00043A043B043D043E043F04410442044412
:10EAEE000445044604480449044A044C044D044FAA
:10EAFE000450045104530454045604570458045A41
:10EB0E00045B045D045E045F0461046204640465D6
:10EB1E00046604680469046B046C046D046F04706D
:10EB2E00047204730474047604770479047A047C02
:10EB3E00047D047E04800481048304840485048798
:10EB4E000488048A048B048C048E048F049104922E
:10EB5E0004940495049604980499049B049C049EC2
:10EB6E00049F04A004A204A304A504A604A804A957
:10EB7E0004AA04AC04AD04AF04B004B204B304B4EC
:10EB8E0004B604B704B904BA04BC04BD04BE04C080
:10EB9E0004C104C304C404C604C704C804CA04CB15
:10EBAE0004CD04CE04D004D104D304D404D504D7A8
:10EBBE0004D804DA04DB04DD04DE04E004E104E23C
:10EBCE0004E404E504E704E804EA04EB04ED04EECF
:10EBDE0004EF04F104F204F404F504F704F804FA63
:10EBEE0004FB04FD04FE04FF0401050205040505F3
:10EBFE0005070508050A050B050D050E050F051180
:10EC0E0005120514051505170518051A051B051D12
:10EC1E00051E0520052105230524052505270528A4
:10EC2E00052A052B052D052E053005310533053436
:10EC3E00053605370539053A053C053D053E0540C7
:10EC4E00054105430544054605470549054A054C5A
:10EC5E00054D054F055005520553055505560558EA
:10EC6E000559055B055C055E055F0560056205637C
:10EC7E000565056605680569056B056C056E056F0E
:10EC8E00057105720574057505770578057A057B9E
:10EC9E00057D057E0580058105830584058605872E
:10ECAE000589058A058C058D058F059005920593BE
:10ECBE000595059605980599059B059C059E059F4E
:10ECCE0005A105A205A405A505A705A805AA05ABDE
:10ECDE0005AD05AE05B005B105B305B405B605B76E
:10ECEE0005B905BA05BC05BD05BF05C005C205C3FE
:10ECFE0005C505C605C805C905CB05CC05CE05CF8E
:10ED0E0005D105D205D405D505D705D805DA05DB1D
:10ED1E0005DD05DE05E005E105E305E405E605E8AC
:10ED2E0005E905EB05EC05EE05EF05F105F205F439
:10ED3E0005F505F705F805FA05FB05FD05FE0500C9
:10ED4E00060106030604060606070609060A060C51
:10ED5E00060D060F061106120614061506170618DE
:10ED6E00061A061B061D061E06200621062306246D
:10ED7E00062606270629062A062C062E062F0631FB
:10ED8E0006320634063506370638063A063B063D89
:10ED9E00063E064006410643064506460648064917
:10EDAE00064B064C064E064F0651065206540655A5
:10EDBE0006570658065A065C065D065F0660066232
:10EDCE0006630665066606680669066B066C066EC1
:10EDDE000670067106730674067606770679067A4D
:10EDEE00067C067D067F06810682068406850687DA
:10EDFE000688068A068B068D068E06900691069369
:10EE0E000695069606980699069B069C069E069FF4
:10EE1E0006A106A306A406A606A706A906AA06AC80
:10EE2E0006AD06AF06B006B206B406B506B706B80E
:10EE3E0006BA06BB06BD06BE06C006C106C306C59B
:10EE4E0006C606C806C906CB06CC06CE06CF06D128
:10EE5E0006D306D406D606D706D906DA06DC06DDB4
:10EE6E0006DF06E106E206E406E506E706E806EA40
:10EE7E0006EB06ED06EF06F006F206F306F506F6CD
:10EE8E0006F806F906FB06FD06FE06000701070357
:10EE9E000704070607070709070B070C070E070FDE
:10EEAE00071107120714071607170719071A071C69
:10EEBE00071D071F072007220724072507270728F6
:10EECE00072A072B072D072E073007320733073582
:10EEDE00073607380739073B073D073E074007410E
:10EEEE0007430744074607480749074B074C074E99
:10EEFE00074F075107520754075607570759075A26
:10EF0E00075C075D075F07610762076407650767B0
:10EF1E000768076A076C076D076F0770077207733C
:10EF2E00077507760778077A077B077D077E0780C8
:10EF3E00078107830785078607880789078B078C54
:10EF4E00078E0790079107930794079607970799DF
:10EF5E00079B079C079E079F07A107A207A407A66A
:10EF6E0007A707A907AA07AC07AD07AF07B007B2F7
:10EF7E0007B407B507B707B807BA07BB07BD07BF82
:10EF8E0007C007C207C307C507C607C807CA07CB0E
:10EF9E0007CD07CE07D007D107D307D507D607D899
:10EFAE0007D907DB07DC07DE07E007E107E307E425
:10EFBE0007E607E707E907EB07EC07EE07EF07F1B0
:10EFCE0007F207F407F607F707F907FA07FC07FD3C
:10EFDE0007FF070108020804080508070808080AC1
:10EFEE00080C080D080F081008120813081508174A
:10EFFE000818081A081B081D081E082008220823D6
:10F00E000825082608280829082B082D082E083060
:10F01E00083108330834083608380839083B083CEC
:10F02E00083E083F08410843084408460847084977
:10F03E00084A084C084E084F085108520854085503
:10F04E0008570858085A085C085D085F086008628F
:10F05E000863086508670868086A086B086D086E1B
:10F06E000870087208730875087608780879087BA6
:10F07E00087D087E08800881088308840886088831
:10F08E000889088B088C088E088F089108920894BE
:10F09E00089608970899089A089C089D089F08A149
:10F0AE0008A208A408A508A708A808AA08AC08ADD5
:10F0BE0008AF08B008B208B308B508B608B808BA61
:10F0CE0008BB08BD08BE08C008C108C308C508C6ED
:10F0DE0008C808C908CB08CC08CE08D008D108D378
:10F0EE0008D408D608D708D908DA08DC08DE08DF05
:10F0FE0008E108E208E408E508E708E808EA08EC91
:10F10E0008ED08EF08F008F208F308F508F708F81C
:10F11E0008FA08FB08FD08FE0800090109030905A5
:10F12E00090609080909090B090C090E090F09112D
:10F13E0009130914091609170919091A091C091DB9
:10F14E00091F092109220924092509270928092A45
:10F15E00092B092D092F09300932093309350936D2
:10F16E0009380939093B093D093E0940094109435E
:10F17E000944094609470949094A094C094E094FEC
:10F18E00095109520954095509570958095A095B79
:10F19E00095D095F09600962096309650966096805
:10F1AE000969096B096D096E097009710973097492
:10F1BE00097609770979097A097C097D097F098120
:10F1CE0009820984098509870988098A098B098DAD
:10F1DE00098E09900992099309950996099809993A
:10F1EE00099B099C099E099F09A109A209A409A6C8
:10F1FE0009A709A909AA09AC09AD09AF09B009B255
:10F20E0009B309B509B609B809B909BB09BD09BEE3
:10F21E0009C009C109C309C409C609C709C909CA70
:10F22E0009CC09CD09CF09D009D209D409D509D7FE
:10F23E0009D809DA09DB09DD09DE09E009E109E38C
:10F24E0009E409E609E709E909EA09EC09ED09EF1C
:10F25E0009F109F209F409F509F709F809FA09FBA8
:10F26E0009FD09FE09000A010A030A040A060A0733
:10F27E000A090A0A0A0C0A0D0A0F0A100A120A13C0
:10F28E000A150A160A180A1A0A1B0A1D0A1E0A204D
:10F29E000A210A230A240A260A270A290A2A0A2CDC
:10F2AE000A2D0A2F0A300A320A330A350A360A386C
:10F2BE000A390A3B0A3C0A3E0A3F0A410A420A44FC
:10F2CE000A450A470A480A4A0A4B0A4D0A4E0A508C
:10F2DE000A510A530A540A560A570A590A5A0A5C1C
:10F2EE000A5D0A5F0A600A620A630A650A660A68AC
:10F2FE000A690A6B0A6C0A6E0A6F0A710A720A743C
:10F30E000A750A770A780A7A0A7B0A7D0A7E0A80CB
:10F31E000A810A830A840A860A870A890A8A0A8C5B
:10F32E000A8D0A8F0A900A920A930A950A960A98EB
:10F33E000A990A9B0A9C0A9E0A9F0AA00AA20AA37D
:10F34E000AA50AA60AA80AA90AAB0AAC0AAE0AAF0F
:10F35E000AB10AB20AB40AB50AB70AB80ABA0ABB9F
:10F36E000ABD0ABE0AC00AC10AC20AC40AC50AC731
:10F37E000AC80ACA0ACB0ACD0ACE0AD00AD10AD3C3
:10F38E000AD40AD60AD70AD90ADA0ADB0ADD0ADE55
:10F39E000AE00AE10AE30AE40AE60AE70AE90AEAE7
:10F3AE000AEC0AED0AEF0AF00AF10AF30AF40AF679
:10F3BE000AF70AF90AFA0AFC0AFD0AFF0A000B010B
:10F3CE000B030B040B060B070B090B0A0B0C0B0D97
:10F3DE000B0F0B100B110B130B140B160B170B192A
:10F3EE000B1A0B1C0B1D0B1E0B200B210B230B24BE
:10F3FE000B260B270B290B2A0B2B0B2D0B2E0B3051
:10F40E000B310B330B340B360B370B380B3A0B3BE4
:10F41E000B3D0B3E0B400B410B420B440B450B4778
:10F42E000B480B4A0B4B0B4C0B4E0B4F0B510B520D
:10F43E000B540B550B560B580B590B5B0B5C0B5EA1
:10F44E000B5F0B600B620B630B650B660B680B6936
:10F45E000B6A0B6C0B6D0B6F0B700B720B730B74CB
:10F46E000B760B770B790B7A0B7B0B7D0B7E0B8060
:10F47E000B810B820B840B850B870B880B8A0B8BF6
:10F48E000B8C0B8E0B8F0B910B920B930B950B968C
:10F49E000B980B990B9A0B9C0B9D0B9F0BA00BA122
:10F4AE000BA30BA40BA60BA70BA80BAA0BAB0BADB8
:10F4BE000BAE0BAF0BB10BB20BB40BB50BB60BB84F
:10F4CE000BB90BBA0BBC0BBD0BBF0BC00BC10BC3E7
:10F4DE000BC40BC60BC70BC80BCA0BCB0BCC0BCE7E
:10F4EE000BCF0BD10BD20BD30BD50BD60BD80BD915
:10F4FE000BDA0BDC0BDD0BDE0BE00BE10BE30BE4AD
:10F50E000BE50BE70BE80BE90BEB0BEC0BED0BEF45
:10F51E000BF00BF20BF30BF40BF60BF70BF80BFADD
:10F52E000BFB0BFC0BFE0BFF0B010C020C030C0573
:10F53E000C060C070C090C0A0C0B0C0D0C0E0C0F08
:10F54E000C110C120C140C150C160C180C190C1AA0
:10F55E000C1C0C1D0C1E0C200C210C220C240C253A
:10F56E000C260C280C290C2A0C2C0C2D0C2E0C30D5
:10F57E000C310C320C340C350C360C380C390C3A70
:10F58E000C3C0C3D0C3E0C400C410C420C440C450A
:10F59E000C460C480C490C4A0C4C0C4D0C4E0C50A5
:10F5AE000C510C520C540C550C560C580C590C5A40
:10F5BE000C5C0C5D0C5E0C5F0C610C620C630C65DC
:10F5CE000C660C670C690C6A0C6B0C6D0C6E0C6F78
:10F5DE000C710C720C730C740C760C770C780C7A14
:10F5EE000C7B0C7C0C7E0C7F0C800C810C830C84B1
:10F5FE000C850C870C880C890C8B0C8C0C8D0C8E4E
:10F60E000C900C910C920C940C950C960C970C99EA
:10F61E000C9A0C9B0C9D0C9E0C9F0CA00CA20CA388
:10F62E000CA40CA50CA70CA80CA90CAB0CAC0CAD27
:10F63E000CAE0CB00CB10CB20CB40CB50CB60CB7C5
:10F64E000CB90CBA0CBB0CBC0CBE0CBF0CC00CC164
:10F65E000CC30CC40CC50CC60CC80CC90CCA0CCC03
:10F66E000CCD0CCE0CCF0CD10CD20CD30CD40CD6A2
:10F67E000CD70CD80CD90CDB0CDC0CDD0CDE0CE042
:10F68E000CE10CE20CE30CE40CE60CE70CE80CE9E4
:10F69E000CEB0CEC0CED0CEE0CF00CF10CF20CF384
:10F6AE000CF50CF60CF70CF80CF90CFB0CFC0CFD25
:10F6BE000CFE0C000D010D020D030D050D060D07C0
:10F6CE000D080D090D0B0D0C0D0D0D0E0D0F0D1161
:10F6DE000D120D130D140D160D170D180D190D1A03
:10F6EE000D1C0D1D0D1E0D1F0D200D220D230D24A5
:10F6FE000D250D260D280D290D2A0D2B0D2C0D2E49
:10F70E000D2F0D300D310D320D340D350D360D37EB
:10F71E000D380D3A0D3B0D3C0D3D0D3E0D3F0D418F
:10F72E000D420D430D440D450D470D480D490D4A33
:10F73E000D4B0D4C0D4E0D4F0D500D510D520D54D8
:10F74E000D550D560D570D580D590D5B0D5C0D5D7C
:10F75E000D5E0D5F0D600D620D630D640D650D6622
:10F76E000D670D680D6A0D6B0D6C0D6D0D6E0D6FC9
:10F77E000D710D720D730D740D750D760D770D796E
:10F78E000D7A0D7B0D7C0D7D0D7E0D7F0D810D8215
:10F79E000D830D840D850D860D870D890D8A0D8BBC
:10F7AE000D8C0D8D0D8E0D8F0D900D920D930D9464
:10F7BE000D950D960D970D980D990D9B0D9C0D9D0C
:10F7CE000D9E0D9F0DA00DA10DA20DA30DA50DA6B5
:10F7DE000DA70DA80DA90DAA0DAB0DAC0DAD0DAF5E
:10F7EE000DB00DB10DB20DB30DB40DB50DB60DB707
:10F7FE000DB80DBA0DBB0DBC0DBD0DBE0DBF0DC0B0
:10F80E000DC10DC20DC30DC40DC60DC70DC80DC95A
:10F81E000DCA0DCB0DCC0DCD0DCE0DCF0DD00DD106
:10F82E000DD30DD40DD50DD60DD70DD80DD90DDAAE
:10F83E000DDB0DDC0DDD0DDE0DDF0DE00DE20DE35C
:10F84E000DE40DE50DE60DE70DE80DE90DEA0DEB06
:10F85E000DEC0DED0DEE0DEF0DF00DF10DF20DF3B6
:10F86E000DF50DF60DF70DF80DF90DFA0DFB0DFC5E
:10F87E000DFD0DFE0DFF0D000E010E020E030E040A
:10F88E000E050E060E070E080E090E0A0E0B0E0CB6
:10F89E000E0D0E0E0E0F0E100E110E130E140E1563
:10F8AE000E160E170E180E190E1A0E1B0E1C0E1D0E
:10F8BE000E1E0E1F0E200E210E220E230E240E25BE
:10F8CE000E260E270E280E290E2A0E2B0E2C0E2D6E
:10F8DE000E2E0E2F0E300E310E320E330E340E351E
:10F8EE000E360E370E380E390E3A0E3B0E3C0E3DCE
:10F8FE000E3E0E3F0E400E400E410E420E430E4483
:10F90E000E450E460E470E480E490E4A0E4B0E4C35
:10F91E000E4D0E4E0E4F0E500E510E520E530E54E5
:10F92E000E550E560E570E580E590E5A0E5B0E5C95
:10F93E000E5C0E5D0E5E0E5F0E600E610E620E634D
:10F94E000E640E650E660E670E680E690E6A0E6BFD
:10F95E000E6C0E6D0E6D0E6E0E6F0E700E710E72B3
:10F96E000E730E740E750E760E770E780E790E7966
:10F97E000E7A0E7B0E7C0E7D0E7E0E7F0E800E811D
:10F98E000E820E830E840E840E850E860E870E88D2
:10F99E000E890E8A0E8B0E8C0E8D0E8E0E8E0E8F87
:10F9AE000E900E910E920E930E940E950E960E963E
:10F9BE000E970E980E990E9A0E9B0E9C0E9D0E9EF5
:10F9CE000E9E0E9F0EA00EA10EA20EA30EA40EA5AD
:10F9DE000EA50EA60EA70EA80EA90EAA0EAB0EAC65
:10F9EE000EAC0EAD0EAE0EAF0EB00EB10EB20EB21E
:10F9FE000EB30EB40EB50EB60EB70EB80EB80EB9D7
:10FA0E000EBA0EBB0EBC0EBD0EBD0EBE0EBF0EC090
:10FA1E000EC10EC20EC30EC30EC40EC50EC60EC749
:10FA2E000EC80EC80EC90ECA0ECB0ECC0ECD0ECD04
:10FA3E000ECE0ECF0ED00ED10ED10ED20ED30ED4C0
:10FA4E000ED50ED60ED60ED70ED80ED90EDA0EDA7B
:10FA5E000EDB0EDC0EDD0EDE0EDE0EDF0EE00EE138
:10FA6E000EE20EE20EE30EE40EE50EE60EE60EE7F5
:10FA7E000EE80EE90EEA0EEA0EEB0EEC0EED0EEDB2
:10FA8E000EEE0EEF0EF00EF10EF10EF20EF30EF470
:10FA9E000EF50EF50EF60EF70EF80EF80EF90EFA2E
:10FAAE000EFB0EFB0EFC0EFD0EFE0EFE0EFF0E00EE
:10FABE000F010F020F020F030F040F050F050F06A4
:10FACE000F070F080F080F090F0A0F0B0F0B0F0C64
:10FADE000F0D0F0D0F0E0F0F0F100F100F110F1226
:10FAEE000F130F130F140F150F160F160F170F18E6
:10FAFE000F180F190F1A0F1B0F1B0F1C0F1D0F1DA9
:10FB0E000F1E0F1F0F200F200F210F220F220F236A
:10FB1E000F240F250F250F260F270F270F280F292C
:10FB2E000F290F2A0F2B0F2C0F2C0F2D0F2E0F2EF0
:10FB3E000F2F0F300F300F310F320F320F330F34B4
:10FB4E000F350F350F360F370F370F380F390F3977
:10FB5E000F3A0F3B0F3B0F3C0F3D0F3D0F3E0F3F3C
:10FB6E000F3F0F400F410F410F420F430F430F4402
:10FB7E000F450F450F460F460F470F480F480F49C9
:10FB8E000F4A0F4A0F4B0F4C0F4C0F4D0F4E0F4E8F
:10FB9E000F4F0F4F0F500F510F510F520F530F5357
:10FBAE000F540F550F550F560F560F570F580F581E
:10FBBE000F590F5A0F5A0F5B0F5B0F5C0F5D0F5DE6
:10FBCE000F5E0F5E0F5F0F600F600F610F610F62B0
:10FBDE000F630F630F640F640F650F660F660F6779
:10FBEE000F670F680F690F690F6A0F6A0F6B0F6C43
:10FBFE000F6C0F6D0F6D0F6E0F6E0F6F0F700F700E
:10FC0E000F710F710F720F720F730F740F740F75D8
:10FC1E000F750F760F760F770F780F780F790F79A4
:10FC2E000F7A0F7A0F7B0F7B0F7C0F7D0F7D0F7E70
:10FC3E000F7E0F7F0F7F0F800F800F810F810F823E
:10FC4E000F830F830F840F840F850F850F860F860A
:10FC5E000F870F870F880F880F890F890F8A0F8ADA
:10FC6E000F8B0F8C0F8C0F8D0F8D0F8E0F8E0F8FA6
:10FC7E000F8F0F900F900F910F910F920F920F9376
:10FC8E000F930F940F940F950F950F960F960F9746
:10FC9E000F970F980F980F990F990F9A0F9A0F9B16
:10FCAE000F9B0F9C0F9C0F9D0F9D0F9D0F9E0F9EE8
:10FCBE000F9F0F9F0FA00FA00FA10FA10FA20FA2BA
:10FCCE000FA30FA30FA40FA40FA50FA50FA50FA68B
:10FCDE000FA60FA70FA70FA80FA80FA90FA90FA95F
:10FCEE000FAA0FAA0FAB0FAB0FAC0FAC0FAD0FAD32
:10FCFE000FAD0FAE0FAE0FAF0FAF0FB00FB00FB106
:10FD0E000FB10FB10FB20FB20FB30FB30FB30FB4DA
:10FD1E000FB40FB50FB50FB60FB60FB60FB70FB7AF
:10FD2E000FB80FB80FB80FB90FB90FBA0FBA0FBA85
:10FD3E000FBB0FBB0FBC0FBC0FBC0FBD0FBD0FBE5B
:10FD4E000FBE0FBE0FBF0FBF0FC00FC00FC00FC132
:10FD5E000FC10FC20FC20FC20FC30FC30FC30FC409
:10FD6E000FC40FC50FC50FC50FC60FC60FC60FC7E1
:10FD7E000FC70FC70FC80FC80FC90FC90FC90FCABA
:10FD8E000FCA0FCA0FCB0FCB0FCB0FCC0FCC0FCC94
:10FD9E000FCD0FCD0FCD0FCE0FCE0FCE0FCF0FCF6E
:10FDAE000FCF0FD00FD00FD00FD10FD10FD10FD249
:10FDBE000FD20FD20FD30FD30FD30FD40FD40FD424
:10FDCE000FD50FD50FD50FD60FD60FD60FD70FD7FE
:10FDDE000FD70FD70FD80FD80FD80FD90FD90FD9DC
:10FDEE000FDA0FDA0FDA0FDA0FDB0FDB0FDB0FDCB8
:10FDFE000FDC0FDC0FDC0FDD0FDD0FDD0FDE0FDE96
:10FE0E000FDE0FDE0FDF0FDF0FDF0FE00FE00FE073
:10FE1E000FE00FE10FE10FE10FE10FE20FE20FE252
:10FE2E000FE20FE30FE30FE30FE30FE40FE40FE432
:10FE3E000FE40FE50FE50FE50FE50FE60FE60FE612
:10FE4E000FE60FE70FE70FE70FE70FE80FE80FE8F2
:10FE5E000FE80FE90FE90FE90FE90FE90FEA0FEAD3
:10FE6E000FEA0FEA0FEB0FEB0FEB0FEB0FEB0FECB5
:10FE7E000FEC0FEC0FEC0FED0FED0FED0FED0FED97
:10FE8E000FEE0FEE0FEE0FEE0FEE0FEF0FEF0FEF79
:10FE9E000FEF0FEF0FEF0FF00FF00FF00FF00FF05F
:10FEAE000FF10FF10FF10FF10FF10FF10FF20FF242
:10FEBE000FF20FF20FF20FF30FF30FF30FF30FF327
:10FECE000FF30FF40FF40FF40FF40FF40FF40FF40D
:10FEDE000FF50FF50FF50FF50FF50FF50FF60FF6F2
:10FEEE000FF60FF60FF60FF60FF60FF70FF70FF7D9
:10FEFE000FF70FF70FF70FF70FF70FF80FF80FF8C1
:10FF0E000FF80FF80FF80FF80FF80FF90FF90FF9A8
:10FF1E000FF90FF90FF90FF90FF90FFA0FFA0FFA90
:10FF2E000FFA0FFA0FFA0FFA0FFA0FFA0FFA0FFB7A
:10FF3E000FFB0FFB0FFB0FFB0FFB0FFB0FFB0FFB63
:10FF4E000FFB0FFB0FFC0FFC0FFC0FFC0FFC0FFC4D
:10FF5E000FFC0FFC0FFC0FFC0FFC0FFC0FFC0FFD3A
:10FF6E000FFD0FFD0FFD0FFD0FFD0FFD0FFD0FFD23
:10FF7E000FFD0FFD0FFD0FFD0FFD0FFD0FFD0FFD13
:10FF8E000FFE0FFE0FFE0FFE0FFE0FFE0FFE0FFEFB
:10FF9E000FFE0FFE0FFE0FFE0FFE0FFE0FFE0FFEEB
:10FFAE000FFE0FFE0FFE0FFE0FFE0FFE0FFE0FFEDB
:10FFBE000FFE0FFE0FFE0FFE0FFE0FFE0FFE0FFECB
:10FFCE000FFE0FFE0FFE0FFE0FFE0FFE0FFE0FFEBB
:10FFDE000F10204080000000000000000000010211
:10FFEE000408102080400000000000000001020400
:02FFFE000800F9
:020000040001F9
:100000004950D8B406EF80F008EF80F01BEF80F085
:10001000610060F63BF5610064F63CF54850D8B4E9
:1000200014EF80F017EF80F0010E18EF80F0000E53
:10003000486E000E496E4850100D600EF324D96EC4
:10004000050EF420DA6E610078F301F5610074F3B7
:1000500002F505018051012681510222FF0E011493
:10006000806F1F0E0214816F4850100D620EF32432
:10007000D96E050EF420DA6E610078F301F56100A7
:1000800074F302F521EE82F1610078F303F561006B
:1000900074F304F50150032602500422FF0E0314EA
:1000A000826F1F0E0414836F4850100D640EF324EA
:1000B000D96E050EF420DA6E610078F301F5610067
:1000C00074F302F521EE84F1610078F303F5610029
:1000D00074F304F50150032602500422FF0E0314AA
:1000E000846F1F0E0414856F4850100D660EF324A4
:1000F000D96E050EF420DA6E610078F301F5610027
:1001000074F302F521EE86F1610078F303F56100E6
:1001100074F304F50150032602500422FF0E031469
:10012000866F1F0E0414876F4850100D680EF3245D
:10013000D96E050EF420DA6E610078F301F56100E6
:1001400074F302F521EE88F1610078F303F56100A4
:1001500074F304F50150032602500422FF0E031429
:10016000886F1F0E0414896F4850100D6A0EF32417
:10017000D96E050EF420DA6E610078F301F56100A6
:1001800074F302F521EE8AF1610078F303F5610062
:1001900074F304F50150032602500422FF0E0314E9
:1001A0008A6F1F0E04148B6F4850100D6C0EF324D1
:1001B000D96E050EF420DA6E610078F301F5610066
:1001C00074F302F521EE8CF1610078F303F5610020
:1001D00074F304F50150032602500422FF0E0314A9
:1001E0008C6F1F0E04148D6F4850100D6E0EF3248B
:1001F000D96E050EF420DA6E610078F301F5610026
:1002000074F302F521EE8EF1610078F303F56100DD
:1002100074F304F50150032602500422FF0E031468
:100220008E6F1F0E04148F6FD8908E35F66E8F353B
:10023000F76EDF0EF626BF0EF722F86A000EF822E0
:1002400009006100D4F301F509006100D4F302F55F
:10025000D8908A35F66E8B35F76EDF0EF626BF0E18
:10026000F722F86A000EF82209006100D4F303F5C2
:1002700009006100D4F304F5D8908635F66E873511
:10028000F76EDF0EF626BF0EF722F86A000EF82290
:1002900009006100D4F305F509006100D4F306F507
:1002A000D8908235F66E8335F76EDF0EF626BF0ED8
:1002B000F722F86A000EF82209006100D4F307F56E
:1002C00009006100D4F308F5D8908C35F66E8D35B1
:1002D000F76EDF0EF626BF0EF722F86A000EF82240
:1002E00009006100D4F309F509006100D4F30AF5AF
:1002F000D8908835F66E8935F76EDF0EF626BF0E7C
:10030000F722F86A000EF82209006100D4F30BF519
:1003100009006100D4F30CF5D8908435F66E85356C
:10032000F76EDF0EF626BF0EF722F86A000EF822EF
:1003300009006100D4F30DF509006100D4F30EF556
:10034000D8908035F66E8135F76EDF0EF626BF0E3B
:10035000F722F86A000EF82209006100D4F30FF5C5
:1003600009006100D4F310F50D500F260E50102235
:100370000B500F260C50102209500F260A50102245
:1003800007500F260850102205500F260650102245
:1003900003500F260450102201500F260250102245
:1003A000D8901030116E0F303D6E610044F43EF570
:1003B000D8903934D96E3A34DA6EFF0ED926080E49
:1003C000DA22610078F301F5610074F302F5D89048
:1003D0000230046E0130036E03503D2604503E226D
:1003E000D8903934D96E3A34DA6EFF0ED926080E19
:1003F000DA226100F4F4DEF46100F8F4DDF4D89060
:100400003734D96E3834DA6EDF0ED926050EDA228B
:10041000610078F301F5610074F302F5D8900230C1
:10042000046E0130036E03503D2604503E22D890E6
:100430003734D96E3834DA6EDF0ED926050EDA225B
:100440006100F4F4DEF46100F8F4DDF4394A3A2A8C
:10045000900E395C010E3A58D8A031EF82F033EF9C
:1004600082F037EF82F0000E3A6E000E396E374A96
:10047000382A385009E1F70E375CD8A042EF82F0F5
:1004800044EF82F048EF82F0000E386E000E376EB7
:100490003B50016E3C50026E036A046A0150335CAB
:1004A000025034580350355804503658D8B05BEFDA
:1004B00082F05DEF82F065EF82F0000E3326000ED1
:1004C0003422000E3522100E36223B50016E3C5075
:1004D000026E036A046A0150335E0250345A0350BC
:1004E000355A0450365A010ED227000ED323D42396
:1004F000D5230001000E70BD010E3F6E3F50D8B4F1
:1005000084EF82F086EF82F0ABEF82F04750D8A400
:100510008CEF82F08EEF82F0ABEF82F0D2C5D6F591
:10052000D3C5D7F5D4C5D8F5D5C5D9F5010E050184
:10053000D26F000ED36F000ED46F000ED56F442A19
:10054000070E4418D8A4A7EF82F0A9EF82F0ABEF12
:1005500082F0000E446E6100FCF447F50001000ECD
:1005600074BD010E3F6E3F50D8B4B9EF82F0BBEFBF
:1005700082F0CAEF82F04650D8A4C1EF82F0C3EFF8
:1005800082F0CAEF82F0010E05019427000E952338
:10059000962397236100FCF446F5465043123550EC
:1005A000070B426E4250415CD8A0D9EF82F0DCEFDD
:1005B00082F0010EDDEF82F0000E4526090E45188F
:1005C000D8A4E5EF82F0E7EF82F0E9EF82F0000EC9
:1005D000456E610008F541F54350D8A4F2EF82F072
:1005E000F4EF82F031EF83F03E5000017D6FE80EB2
:1005F0004524F66EF76AFF0EF722F86A000EF8221D
:1006000008006100D4F301F54738E846E00B01101B
:10061000BF6EF80E4424F66EF76AFF0EF722F86AF2
:10062000000EF82208006100D4F301F5DF0E452426
:10063000F66EF76AFF0EF722F86A000EF82208003D
:10064000F5500110C06EF10E4424F66EF76AFF0EED
:10065000F722F86A000EF8220800F5C4BEF43CEF59
:1006600083F0000E00017D6F4738E846E00BBF6E57
:10067000000EC06E000EBE6E010E05019027000E2A
:10068000912392239323120005019351921191110A
:1006900009E1650E905DD8A050EF83F052EF83F032
:1006A00085EF83F0FAEC84F06100BCF4BAF56100E8
:1006B000C0F4BBF50501000EBBBFFF0EBC6FBD6FE4
:1006C000500EBE6FC30EBF6F000EC06F000EC16F25
:1006D00083EC85F005019451BA5D9551BB59965153
:1006E000BC599751BD59D8A078EF83F07BEF83F0C8
:1006F000010E7CEF83F0000E436E000E906F000E33
:10070000916F000E926F000E936F5FEC88F00009FE
:10071000D8B48DEF83F08FEF83F01CEF84F06AEC98
:1007200088F0D89018300501C36F1730C26F610090
:1007300008F7CEF561000CF7CFF5D06BD16B6100F7
:1007400038F717F561003CF718F5610040F719F527
:10075000610044F71AF5610038F71BF561003CF7BA
:100760001CF5610040F71DF5610044F71EF5ABEC88
:1007700086F00C0EC1EF83F0D8901A32193218327D
:100780001732E82EBCEF83F061005CF4CEF5610017
:1007900060F4CFF5610064F4D0F5610068F4D1F540
:1007A000610038F717F561003CF718F5610040F774
:1007B00019F5610044F71AF5610038F71BF561007F
:1007C0003CF71CF5610040F71DF5610044F71EF58C
:1007D000ABEC86F00C0EF2EF83F0D8901A3219329F
:1007E00018321732E82EEDEF83F061005CF4CEF59D
:1007F000610060F4CFF5610064F4D0F5610068F445
:10080000D1F50A0E0501CE25A46F000ECF21A56FEC
:10081000000ED021A66F000ED121A76F000E04019B
:10082000456F0501A5510F0B0401446F610090F65F
:1008300043F4000E93EC88F04950D8A422EF84F0E2
:1008400024EF84F0F9EF84F06100D4F4A0F56100A6
:10085000D8F4A1F50501A26BA36B000ECD6F000EBD
:10086000CC6F610030F7C2F5610034F7C3F5090EB3
:10087000D890C237C337E82E38EF84F0610008F70C
:10088000C4F561000CF7C5F5000EC5BFFF0EC66FBD
:10089000C76FA051C425C86FA151C521C96FA2510E
:1008A000C621CA6FA351C721CB6FFF0EC8159C6F1D
:1008B0000F0EC9159D6F000ECA159E6F000ECB1549
:1008C0009F6F610070F617F5610074F618F561000E
:1008D00078F619F561007CF61AF5610070F61BF5E3
:1008E000610074F61CF5610078F61DF561007CF678
:1008F0001EF5ABEC86F00D0E83EF84F0D8901A3223
:10090000193218321732E82E7EEF84F061005CF461
:100910009CF5610060F49DF5610064F49EF5610052
:1009200068F49FF5140E05019C25C26F000E9D21F1
:10093000C36F4850D8B49FEF84F0A2EF84F0010E4B
:10094000A3EF84F0000EC46FC56BC43BC53BF00E33
:10095000C517C4510F0BC513F00EC417600EC66F38
:10096000050EC76FC451C627C551C723D890CC35D3
:10097000D96ECD35DA6EC651D926C751DA2261005B
:1009800008F7DEF461000CF7DDF4CC4BCD2BCDBFC6
:10099000D3EF84F0CD5109E1080ECC5DD8A0D3EFA0
:1009A00084F0D5EF84F031EF84F0000E176E880EDE
:1009B000186E130E196E000E1A6E610058F71BF5B3
:1009C00061005CF71CF5610060F71DF5610064F7DC
:1009D0001EF555EC86F061005CF498F5610060F45A
:1009E00099F5610064F49AF5610068F49BF5010ED5
:1009F000496E12006100A8F617F56100ACF618F513
:100A00006100B0F619F56100B4F61AF56100B8F6A8
:100A10001BF56100BCF61CF56100C0F61DF5610018
:100A2000C4F61EF52D0E1F6E7F0E206E950E216EE4
:100A30004C0E226E2D0E236EF40E246E510E256E7A
:100A4000580E266EFEEC85F061005CF4B2F5610094
:100A500060F4B3F5610064F4B4F5610068F4B5F5D1
:100A600061006CF4B6F5610070F4B7F5610074F4E0
:100A7000B8F5610078F4B9F5010E0501B225AA6F49
:100A8000000EB321AB6F000EB421AC6F000EB52188
:100A9000AD6F000EB621AE6F000EB721AF6F000E26
:100AA000B821B06F000EB921B16F6100A8F6B2F5A0
:100AB0006100ACF6B3F56100B0F6B4F56100B4F6D0
:100AC000B5F56100B8F6B6F56100BCF6B7F56100A2
:100AD000C0F6B8F56100C4F6B9F5320E79EF85F0CD
:100AE000D890B933B833B733B633B533B433B3333F
:100AF000B233E82E70EF85F06100C8F62FF5610083
:100B0000D0F630F51200000E326E0501BDBF8DEF3C
:100B100085F08BEF85F097EF85F0BD1FBC1FBB1FE5
:100B2000BA6D000EBB23BC23BD23010E326EC1BFC4
:100B30009EEF85F09CEF85F0A6EF85F0C11FC01FEA
:100B4000BF1FBE6D000EBF23C023C123BE51BF1106
:100B5000C011C111D8B4AFEF85F0B1EF85F0E1EF6E
:100B600085F0010E316EBBEF85F0D890BE37BF37F0
:100B7000C037C137312AC1AFC0EF85F0C2EF85F071
:100B8000B5EF85F0BE51BA5DBF51BB59C051BC59DC
:100B9000C151BD59D8A0CFEF85F0D1EF85F0D9EF85
:100BA00085F0BE51BA5FBF51BB5BC051BC5BC15148
:100BB000BD5BD890C133C033BF33BE33312EC2EFDB
:100BC00085F03250D8B4E7EF85F0E9EF85F0F1EF2A
:100BD00085F0BD1FBC1FBB1FBA6D000EBB23BC231D
:100BE000BD236100E8F6BAF56100ECF6BBF56100E3
:100BF000F0F6BCF56100F4F6BDF5120021EE27F128
:100C0000070EDE6AE806FDE217A009EF86F00BEF9B
:100C100086F01BEF86F01F502726205028222150F7
:100C2000292222502A2223502B2224502C222550C4
:100C30002D2226502E22D8901F36203621362236DD
:100C40002336243625362636D8901E321D321C32E5
:100C50001B321A3219321832173217501810191065
:100C60001A101B101C101D101E10D8A43AEF86F08D
:100C70003CEF86F004EF86F061009CF417F561000C
:100C8000A0F418F56100A4F419F56100A8F41AF5B0
:100C90006100ACF41BF56100B0F41CF56100B4F424
:100CA0001DF56100B8F41EF51200000E1F6E000E57
:100CB000206E000E216E000E226E1B501C101D10A7
:100CC0001E10D8B466EF86F068EF86F09EEF86F0CF
:100CD000010E236E72EF86F0D8901B361C361D363F
:100CE0001E36232A1EAE77EF86F079EF86F06CEF82
:100CF00086F0D8901F362036213622361B50175CDE
:100D00001C5018581D5019581E501A58D8A08BEF57
:100D100086F08DEF86F096EF86F01B50175E1C5024
:100D2000185A1D50195A1E501A5A1F80D8901E3238
:100D30001D321C321B32232E79EF86F061007CF4C9
:100D400017F5610080F418F5610084F419F561006D
:100D500088F41AF51200000E1F6E000E206E000EB1
:100D6000216E000E226E17A0B8EF86F0BAEF86F063
:100D7000C2EF86F01B501F261C5020221D5021223E
:100D80001E502222D8901B361C361D361E36D89097
:100D90001A321932183217321750181019101A1047
:100DA000D8A4D5EF86F0D7EF86F0B3EF86F06100D8
:100DB0007CF417F5610080F418F5610084F419F5EE
:100DC000610088F41AF51200000EBE6E000EBF6EB0
:100DD000000EC06E0B0EC66EC00EC76E000EC86E43
:100DE0000401106908690069000E216F000E096F87
:100DF000000E016F000E116F000E0201896F000ED0
:100E0000886F000E876F000E866F000E0401226F40
:100E1000000E026F000E0A6F000E126F03690B695D
:100E2000136904690C691469080E246F3F0E0201EE
:100E3000056F1200420EF66E110EF76E010EF86E7F
:100E400001EED2F110EE08F00900F5C4EEF4E55021
:100E5000E150FAE101EEDFF111EE40F2EE6AE55009
:100E6000E150FCE1E250FAE101EE60F1520EEE6A6F
:100E7000E806FDE101EE33F1170EEE6AE806FDE14A
:100E80000401080E5D6F000E5E6F000E5F6F0001C3
:100E900034EF88F0000E0301D96F000EDA6F000EF8
:100EA000DB6F000EDC6F000EDF6F000EE06F000ED8
:100EB000E56F000EE76F000EEC6F000EEE6F000E98
:100EC000EF6F000EF06F000EF16F000EF26F000E6C
:100ED000F46F000EF56F000EF66F000EF76F000E48
:100EE000F86F000EF96F3F0EFA6F840EF36F120069
:100EF0006100D8F313F56100DCF314F56100E0F351
:100F000015F56100D4F316F5A1A889EF87F08BEFF2
:100F100087F094EF87F0B1A890EF87F092EF87F019
:100F200094EF87F053EC88F0610058F4F5F4610019
:100F300054F4F8F4610050F4F7F461004CF4F6F462
:100F40001100000E03011F6F000E206F020E216FB3
:100F5000F30E1D6F800E1C6FB1981C51600074FC65
:100F60001AF51B6A610068F41BF51A6A1A1005016C
:100F7000DD6F1B50DE6FA188560E176E110E186EB6
:100F8000010E196E75EC88F0010E03011E6F120040
:100F90000501DA51DB11DC11D8B4D1EF87F0D3EFC2
:100FA00087F0E0EF87F002D8E0EF87F00500FA6EF7
:100FB000DA51FD6EDB51FE6EDC51FF6EFA5012000D
:100FC0001200A9EC88F022EC88F0E4EC86F045EC05
:100FD00088F07FEC88F0A5EC88F089EC88F04AEC8A
:100FE00087F00FEC88F09BEC88F0A1EC87F0120002
:100FF00003011EA5FEEF87F000EF88F009EF88F0EF
:101000001E9102501D6F610004F41CF31E810EEF4F
:1010100088F002501D6F610004F41CF31200000EF2
:101020000401466F020E476F000E426F000E416FC3
:10103000000E406F000E456F000E446F440E436F6C
:10104000468F1200000E0001606F000E616F000EEF
:10105000636F000E646F000E656F000E666F000E0A
:10106000676F000E686F1200E1EC87F0000E176EDC
:10107000000E186E010E196E75EC88F0D68E44ECD9
:1010800083F03FEF88F00DEF00F0600E0001AD6FD0
:10109000000EAF6F000EB36F080EB16F000EB06F91
:1010A000000EAC6F1200B198610074F701F5610099
:1010B00078F702F5F8EC87F0C8EC87F0120003012E
:1010C000F3A165EF88F068EF88F0010E69EF88F012
:1010D000000E12000301EB511A6E196AEA5119242D
:1010E000176E000E1A20186E120061005CF4DAF51B
:1010F000610060F4DBF5610064F4DCF51200900E31
:101100000001746F000E756F010E766F060E776F1B
:101110001200800E0001706F000E716F060E726F6C
:10112000010E736F1200176E61005CF4ECF30301A3
:10113000F38FF3811200A80E00017F6F000E7D6F08
:1011400012000100000001000000880E0301D76FAB
:081150001200D69A12001200F1
:020000040020DA
:10000000FF0FFF0FFF0FFF0FFF0FFF0FFF0FFF0F80
:10001000FF0FFF0FFF0FFF0FFF0FFF0FFF0FFF0F70
:020000040030CA
:0A0000008CFFF7FF9FFFFFFFFFFFDB
:00000001FF
