:020000040000FA
:040000000DEF00F010
:04000800D9EF88F0B4
:06001800FF0002EF88F07A
:10F7FE0000FF0FFE0FFE0FFE0FFE0FFE0FFD0FFDA3
:10F80E000FFC0FFB0FFB0FFA0FF90FF80FF70FF6A8
:10F81E000FF50FF30FF20FF10FEF0FEE0FEC0FEAE4
:10F82E000FE80FE60FE40FE20FE00FDE0FDC0FDA4A
:10F83E000FD70FD50FD20FCF0FCD0FCA0FC70FC4D3
:10F84E000FC10FBE0FBB0FB80FB40FB10FAD0FAA84
:10F85E000FA60FA30F9F0F9B0F970F930F8F0F8B5B
:10F86E000F870F830F7E0F7A0F750F710F6C0F6757
:10F87E000F630F5E0F590F540F4F0F4A0F450F3F77
:10F88E000F3A0F350F2F0F290F240F1E0F180F13BE
:10F89E000F0D0F070F010FFB0EF50EEE0EE80EE229
:10F8AE000EDB0ED50ECE0EC80EC10EBA0EB30EACBA
:10F8BE000EA50E9E0E970E900E890E820E7A0E7368
:10F8CE000E6C0E640E5C0E550E4D0E450E3E0E3633
:10F8DE000E2E0E260E1E0E160E0D0E050EFD0DF51F
:10F8EE000DEC0DE40DDB0DD30DCA0DC10DB80DB031
:10F8FE000DA70D9E0D950D8C0D830D7A0D710D6757
:10F90E000D5E0D550D4B0D420D380D2F0D250D1C99
:10F91E000D120D080DFE0CF50CEB0CE10CD70CCDF9
:10F92E000CC30CB90CAE0CA40C9A0C900C850C7B71
:10F93E000C710C660C5C0C510C460C3C0C310C26FC
:10F94E000C1C0C110C060CFB0BF00BE50BDA0BCFA1
:10F95E000BC40BB90BAE0BA30B980B8C0B810B7658
:10F96E000B6A0B5F0B540B480B3D0B310B260B1A1E
:10F97E000B0F0B030BF70AEC0AE00AD40AC80ABDF8
:10F98E000AB10AA50A990A8D0A810A750A690A5DE1
:10F99E000A510A450A390A2D0A210A150A090AFDD1
:10F9AE0009F109E409D809CC09C009B309A7099BD3
:10F9BE00098E098209760969095D095109440938D8
:10F9CE00092B091F0913090609FA08ED08E108D4E5
:10F9DE0008C808BB08AF08A208960889087D0870F9
:10F9EE0008630857084A083E083108250818080C0D
:10F9FE0008FF07F207E607D907CD07C007B407A728
:10FA0E00079B078E078107750768075C074F07433B
:10FA1E000736072A071D0711070407F806EB06DF4E
:10FA2E0006D306C606BA06AD06A106950688067C5E
:10FA3E00067006630657064B063E06320626061A63
:10FA4E00060D060106F505E905DD05D105C505B965
:10FA5E0005AD05A105950589057D05710565055958
:10FA6E00054D05410536052A051E0512050705FB40
:10FA7E0004EF04E404D804CD04C104B604AA049F20
:10FA8E0004940488047D04720466045B04500445E7
:10FA9E00043A042F04240419040E040304F803ED9D
:10FAAE0003E203D803CD03C203B803AD03A2039848
:10FABE00038D03830379036E0364035A03500345D6
:10FACE00033B03310327031D03130309030003F64E
:10FADE0002EC02E202D902CF02C602BC02B302A9B4
:10FAEE0002A00297028D0284027B027202690260FA
:10FAFE000257024E0246023D0234022B0223021A24
:10FB0E0002120209020102F901F101E801E001D835
:10FB1E0001D001C801C001B901B101A901A2019A28
:10FB2E000192018B0184017C0175016E01670160F8
:10FB3E0001590152014B0144013D013601300129A9
:10FB4E000123011C011601100109010301FD00F73B
:10FB5E0000F100EB00E600E000DA00D500CF00C9AE
:10FB6E0000C400BF00B900B400AF00AA00A500A0F9
:10FB7E00009B00970092008D008900840080007B1E
:10FB8E0000770073006F006B00670063005F005B1F
:10FB9E00005800540051004D004A004600430040FA
:10FBAE00003D003A003700340031002F002C0029B0
:10FBBE000027002400220020001E001C001A00183E
:10FBCE000016001400120010000F000D000C000BA8
:10FBDE0000090008000700060005000400030003EA
:10FBEE000002000100010000000000000000000003
:10FBFE0000000000000000000000000000010001F5
:10FC0E0000020003000300040005000600070008C0
:10FC1E000009000B000C000D000F00100012001464
:10FC2E0000160018001A001C001E002000220024DE
:10FC3E0000270029002C002F003100340037003A35
:10FC4E00003D004000430046004A004D0051005464
:10FC5E000058005B005F00630067006B006F00736D
:10FC6E000077007B008000840089008D0092009751
:10FC7E00009B00A000A500AA00AF00B400B900BF11
:10FC8E0000C400C900CF00D500DA00E000E600EBAA
:10FC9E0000F100F700FD0003010901100116011C1F
:10FCAE000123012901300136013D0144014B01526E
:10FCBE00015901600167016E0175017C0184018BA0
:10FCCE000192019A01A201A901B101B901C001C8B5
:10FCDE0001D001D801E001E801F101F901010209A9
:10FCEE000212021A0223022B0234023D0246024E77
:10FCFE000257026002690272027B0284028D029731
:10FD0E0002A002A902B302BC02C602CF02D902E2CD
:10FD1E0002EC02F6020003090313031D032703314D
:10FD2E00033B03450350035A0364036E03790383B5
:10FD3E00038D039803A203AD03B803C203CD03D80A
:10FD4E0003E203ED03F80303040E04190424042F45
:10FD5E00043A04450450045B04660472047D04886E
:10FD6E000494049F04AA04B604C104CD04D804E488
:10FD7E0004EF04FB04070512051E052A053605418E
:10FD8E00054D055905650571057D0589059505A185
:10FD9E0005AD05B905C505D105DD05E905F5050175
:10FDAE00060D061A06260632063E064B0657066353
:10FDBE000670067C0688069506A106AD06BA06C62E
:10FDCE0006D306DF06EB06F806040711071D072A01
:10FDDE0007360743074F075C076807750781078ECD
:10FDEE00079B07A707B407C007CD07D907E607F299
:10FDFE0007FF070C081808250831083E084A08575F
:10FE0E0008630870087D0889089608A208AF08BB29
:10FE1E0008C808D408E108ED08FA08060913091FF6
:10FE2E00092B093809440951095D096909760982C6
:10FE3E00098E099B09A709B309C009CC09D809E4A1
:10FE4E0009F109FD09090A150A210A2D0A390A457F
:10FE5E000A510A5D0A690A750A810A8D0A990AA56C
:10FE6E000AB10ABD0AC80AD40AE00AEC0AF70A0364
:10FE7E000B0F0B1A0B260B310B3D0B480B540B5F64
:10FE8E000B6A0B760B810B8C0B980BA30BAE0BB97D
:10FE9E000BC40BCF0BDA0BE50BF00BFB0B060C11A7
:10FEAE000C1C0C260C310C3C0C460C510C5C0C66DC
:10FEBE000C710C7B0C850C900C9A0CA40CAE0CB92E
:10FECE000CC30CCD0CD70CE10CEB0CF50CFE0C0896
:10FEDE000D120D1C0D250D2F0D380D420D4B0D5510
:10FEEE000D5E0D670D710D7A0D830D8C0D950D9EAA
:10FEFE000DA70DB00DB80DC10DCA0DD30DDB0DE460
:10FF0E000DEC0DF50DFD0D050E0D0E160E1E0E262D
:10FF1E000E2E0E360E3E0E450E4D0E550E5C0E641A
:10FF2E000E6C0E730E7A0E820E890E900E970E9E2A
:10FF3E000EA50EAC0EB30EBA0EC10EC80ECE0ED559
:10FF4E000EDB0EE20EE80EEE0EF50EFB0E010F07A7
:10FF5E000F0D0F130F180F1E0F240F290F2F0F3514
:10FF6E000F3A0F3F0F450F4A0F4F0F540F590F5EA9
:10FF7E000F630F670F6C0F710F750F7A0F7E0F8364
:10FF8E000F870F8B0F8F0F930F970F9B0F9F0FA343
:10FF9E000FA60FAA0FAD0FB10FB40FB80FBB0FBE48
:10FFAE000FC10FC40FC70FCA0FCD0FCF0FD20FD572
:10FFBE000FD70FDA0FDC0FDE0FE00FE20FE40FE6C4
:10FFCE000FE80FEA0FEC0FEE0FEF0FF10FF20FF33A
:10FFDE000FF50FF60FF70FF80FF90FFA0FFB0FFBD8
:10FFEE000FFC0FFD0FFD0FFE0FFE0FFE0FFE0FFE9F
:02FFFE000F00F2
:020000040001F9
:100000000A0E496E4550D8B408EF80F00AEF80F030
:100010001BEF80F098C5B2F599C5B3F54450D8B43C
:1000200014EF80F017EF80F0010E18EF80F0000E53
:10003000446E000E456E4450100D600EF324D96ED0
:10004000050EF420DA6EDE5005018027DD50812395
:100050008005200E8159D8A030EF80F032EF80F07B
:1000600036EF80F0000E805F200E815B4450100D53
:10007000620EF324D96E050EF420DA6EDE5082276C
:10008000DD5083238205200E8359D8A04AEF80F0EB
:100090004CEF80F050EF80F0000E825F200E835B0B
:1000A0004450100D640EF324D96E050EF420DA6E60
:1000B000DE508427DD5085238405200E8559D8A085
:1000C00064EF80F066EF80F06AEF80F0000E845FEE
:1000D000200E855B4450100D660EF324D96E050E7C
:1000E000F420DA6EDE508627DD5087238605200E49
:1000F0008759D8A07EEF80F080EF80F084EF80F009
:10010000000E865F200E875B4450100D680EF324AE
:10011000D96E050EF420DA6EDE508827DD50892373
:100120008805200E8959D8A098EF80F09AEF80F0CA
:100130009EEF80F0000E885F200E895B4450100D0A
:100140006A0EF324D96E050EF420DA6EDE508A278B
:10015000DD508B238A05200E8B59D8A0B2EF80F09A
:10016000B4EF80F0B8EF80F0000E8A5F200E8B5B5A
:100170004450100D6C0EF324D96E050EF420DA6E87
:10018000DE508C27DD508D238C05200E8D59D8A094
:10019000CCEF80F0CEEF80F0D2EF80F0000E8C5FDD
:1001A000200E8D5B4450100D6E0EF324D96E050E9B
:1001B000F420DA6EDE508E27DD508F238E05200E60
:1001C0008F59D8A0E6EF80F0E8EF80F0ECEF80F0F8
:1001D000000E8E5F200E8F5B21EE8CF1610078F3B4
:1001E00001F5610074F302F5D89002320132D89023
:1001F00002320132D89002320132D89001360236F2
:10020000FF0E0124F66EF70E0220F76EF86A000E5C
:10021000F82209006100D4F303F509006100D4F36A
:1002200004F521EE88F1610078F305F5610074F3BF
:1002300006F5D89006320532D89006320532D890AD
:1002400006320532D89005360636FF0E0524F66EC6
:10025000F70E0620F76EF86A000EF822090061001A
:10026000D4F307F509006100D4F308F521EE84F119
:10027000610078F309F5610074F30AF5D8900A3249
:100280000932D8900A320932D8900A320932D8900D
:1002900009360A36FF0E0924F66EF70E0A20F76EAD
:1002A000F86A000EF82209006100D4F30BF509008A
:1002B0006100D4F30CF5610000F60DF5610004F661
:1002C0000EF5D8900E320D32D8900E320D32D890F5
:1002D0000E320D32D8900D360E36FF0E0D24F66E0E
:1002E000F70E0E20F76EF86A000EF8220900610082
:1002F000D4F30FF509006100D4F310F50B500F266D
:100300000C50102207500F260850102203500F26C1
:1003100004501022D8901030116E0F303B6E6100E7
:1003200044F43CF521EE8EF1610078F301F56100B3
:1003300074F302F5D89002320132D89002320132C1
:10034000D89002320132D89001360236FF0E0124D5
:10035000F66EF70E0220F76EF86A000EF82209001A
:100360006100D4F303F509006100D4F304F521EE34
:100370008AF1610078F305F5610074F306F5D89011
:1003800006320532D89006320532D8900632053250
:10039000D89005360636FF0E0524F66EF70E0620B9
:1003A000F76EF86A000EF82209006100D4F307F531
:1003B00009006100D4F308F521EE86F1610078F3BD
:1003C00009F5610074F30AF5D8900A320932D89021
:1003D0000A320932D8900A320932D89009360A36E0
:1003E000FF0E0924F66EF70E0A20F76EF86A000E6B
:1003F000F82209006100D4F30BF509006100D4F381
:100400000CF521EE82F1610078F30DF5610074F3D3
:100410000EF5D8900E320D32D8900E320D32D890A3
:100420000E320D32D8900D360E36FF0E0D24F66EBC
:10043000F70E0E20F76EF86A000EF8220900610030
:10044000D4F30FF509006100D4F310F50B500F261B
:100450000C50102207500F260850102203500F2670
:1004600004501022D8901030116E0F30B46F61001C
:1004700044F4B5F5B4513B26B5513C22D8903934FB
:10048000D96E3A34DA6E110ED926090EDA226100DD
:1004900078F301F5610074F302F5D8900230046E30
:1004A0000130036E03503B2604503C22D89039346F
:1004B000D96E3A34DA6E110ED926090EDA226100AD
:1004C000ECF4DEF46100F0F4DDF4D8903734D96E4A
:1004D0003834DA6EF10ED926050EDA22610078F38F
:1004E00001F5610074F302F5D8900230046E01301A
:1004F000036E03503B2604503C22D8903734D96E0B
:100500003834DA6EF10ED926050EDA226100ECF4E9
:10051000DEF46100F0F4DDF4394A3A2A900E395CD9
:10052000010E3A58D8A097EF82F099EF82F09DEF34
:1005300082F0000E3A6E000E396E374A382A385073
:1005400009E1F70E375CD8A0A8EF82F0AAEF82F09D
:10055000AEEF82F0000E386E000E376E3F50D8A41A
:10056000B4EF82F0B6EF82F0B9EF82F03C500001B8
:100570007D6F0501B251016EB351026E036A046AC8
:1005800001509C5D02509D5903509E5904509F5943
:10059000D8B0CDEF82F0CFEF82F0D7EF82F0000E2F
:1005A0009C27000E9D23000E9E23100E9F23B25108
:1005B000016EB351026E036A046A01509C5F0250DF
:1005C0009D5B03509E5B04509F5B010EE027000E75
:1005D000E123E223E323000170ADF1EF82F0F3EFBA
:1005E00082F018EF83F04350D8A4F9EF82F0FBEFCC
:1005F00082F018EF83F0E0C5E6F5E1C5E7F5E2C566
:10060000E8F5E3C5E9F5010E0501E06F000EE16FC5
:10061000000EE26F000EE36F462A070E4618D8A4BC
:1006200014EF83F016EF83F018EF83F0000E466EA0
:100630000001000E70BD010E436E70AD02D0BF8A86
:1006400001D0BF9A120061001CF5D0F5010E050122
:10065000D16F000ED26FD02B31EF83F0D890D1370D
:10066000D237D02F2EEF83F0610044F7EDF5610013
:1006700048F7EEF5610018F5D0F5010E0501D16FD0
:10068000D02B45EF83F0D890D137D02F43EF83F0B4
:100690000501D151486E4050D8B451EF83F053EF6B
:1006A00083F059EF83F0000E486E610020F5EDF500
:1006B000EE6B000170BD5FEF83F064EF83F0200EFE
:1006C0000501D06F66EF83F00501D06BD051BF6E8E
:1006D0006100B4F7D0F56100B8F7D1F5040ED26F20
:1006E000D890D133D033D22F70EF83F0D0511F0B7D
:1006F000BF12610020F5D0F5D890D033D890D03318
:10070000D890D0330F0ED0176100B4F7D1F50F0E8B
:10071000D117D139F00BD011C06E040E4818D8B4DF
:1007200094EF83F098EF83F0D06BD02B9AEF83F0A7
:100730000501D06BD03BD047D047BE50D019BF0B7E
:10074000D019BE6E020E4818D8B4A9EF83F0ADEFF1
:1007500083F0D06BD02BAFEF83F00501D06BD0339B
:10076000D033BE50D0197F0BD019BE6E4804D8B418
:10077000BCEF83F0C0EF83F0D06BD02BC2EF83F0DF
:100780000501D06BD03BD047BE50D019DF0BD0193C
:10079000BE6EC0EC89F00009D8B4D1EF83F0D3EF7E
:1007A00083F08CEF84F0CBEC89F061005CF4DCF535
:1007B000610060F4DDF50501DE6BDF6B610070F751
:1007C00017F5610074F718F5610078F719F5610005
:1007D0007CF71AF5610070F71BF5610074F71CF5E2
:1007E000610078F71DF561007CF71EF53CEC88F0A0
:1007F0000D0E00EF84F0D8901A32193218321732E9
:10080000E82EFBEF83F061005CF4DCF5610060F43E
:10081000DDF5610064F4DEF5610068F4DFF5610088
:1008200070F717F5610074F718F5610078F719F59E
:1008300061007CF71AF5610070F71BF5610074F731
:100840001CF5610078F71DF561007CF71EF53CECA6
:1008500088F00D0E31EF84F0D8901A321932183228
:100860001732E82E2CEF84F061005CF4DCF56100B7
:1008700060F4DDF5610064F4DEF5610068F4DFF535
:10088000610070F717F5610074F718F5610078F7EB
:1008900019F561007CF71AF5610070F71BF561002E
:1008A00074F71CF5610078F71DF561007CF71EF503
:1008B0003CEC88F00D0E62EF84F0D8901A321932B9
:1008C00018321732E82E5DEF84F061005CF4DCF53D
:1008D000610060F4DDF5610064F4DEF5610068F448
:1008E000DFF50A0E0501DC25A06F000EDD21A16FEA
:1008F000000EDE21A26F000EDF21A36F000E0401A7
:10090000456F0501A1510F0B0401446F610080F692
:1009100043F4000EF4EC89F04550D8A492EF84F033
:1009200094EF84F0F6EF85F0000174AD9AEF84F057
:100930009CEF84F0A7EF84F04250D8A4A2EF84F09B
:10094000A4EF84F0A7EF84F00501AE4BAF2B0001BC
:10095000000E74BD010E426E0501AE51D06FAF5155
:10096000D16FD26BD36BF7EC85F06100BCF4C8F5A6
:100970006100C0F4C9F50501000EC9BFFF0ECA6FC2
:10098000CB6F500ECC6FC30ECD6F000ECE6F000E2E
:10099000CF6F80EC86F00501D051C85DD151C959A7
:1009A000D251CA59CB51800AD46FD351800AD4593D
:1009B000D8B0DDEF84F0DFEF84F0E5EF84F0010ED6
:1009C000406E010E3F6EECEF84F0000E3F6E0001B2
:1009D000000E74BD010E406E610078F633F56100C3
:1009E0007CF634F5356A366A000E0501DB6F000EC1
:1009F000DA6F610068F7D0F561006CF7D1F5090E88
:100A0000D890D037D137E82E00EF85F0610040F75D
:100A1000D2F5610044F7D3F5000ED3BFFF0ED46FBB
:100A2000D56F3350D225D66F3450D321D76F355080
:100A3000D421D86F3650D521D96FFF0ED615946FBB
:100A40000F0ED715956F000ED815966F000ED9159D
:100A5000976F610050F617F5610054F618F56100C4
:100A600058F619F561005CF61AF5610050F61BF5B1
:100A7000610054F61CF5610058F61DF561005CF646
:100A80001EF53CEC88F00D0E4BEF85F0D8901A3235
:100A9000193218321732E82E46EF85F061005CF407
:100AA00094F5610060F495F5610064F496F56100D9
:100AB00068F497F5140E05019425D06F000E95216A
:100AC000D16F4450D8B467EF85F06AEF85F0010E1E
:100AD0006BEF85F0000ED26FD36BD23BD33BF00EA1
:100AE000D317D2510F0BD313F00ED217600ED46F61
:100AF000050ED56FD251D427D351D523D890DA35EE
:100B0000D96EDB35DA6ED451D926D551DA2261009F
:100B100040F7DEF4610044F7DDF4DA4BDB2BDBBF9A
:100B20009BEF85F0DB5109E1080EDA5DD8A09BEF61
:100B300085F09DEF85F0F9EF84F0070E3314336EE6
:100B4000000E3414346E000E3514356E000E36145B
:100B5000366EAC51D06FAD51D16FD26BD36B335079
:100B6000D05D3450D1593550D2593650D359D8B0C0
:100B7000BCEF85F0BEEF85F0CCEF85F0010E472489
:100B8000176E186A000E1822000E1A6E090E196EE2
:100B9000FBEC86F01750476E6100CCF4ACF56100B9
:100BA000D0F4ADF5000E176E880E186E130E196E88
:100BB000000E1A6E610098F71BF561009CF71CF59A
:100BC0006100A0F71DF56100A4F71EF5ACEC87F0FD
:100BD00061005CF498F5610060F499F5610064F4DB
:100BE0009AF5610068F49BF5010E456E12006100F4
:100BF000E0F617F56100E4F618F56100E8F619F57E
:100C00006100ECF61AF56100F0F61BF56100F4F6F0
:100C10001CF56100F8F61DF56100FCF61EF52D0EC1
:100C20001F6E7F0E206E950E216E4C0E226E2D0EC5
:100C3000236EF40E246E510E256E580E266E55EC62
:100C400087F061005CF4C0F5610060F4C1F56100FB
:100C500064F4C2F5610068F4C3F561006CF4C4F596
:100C6000610070F4C5F5610074F4C6F5610078F4B4
:100C7000C7F5010E0501C025B86F000EC121B96F7F
:100C8000000EC221BA6F000EC321BB6F000EC4213B
:100C9000BC6F000EC521BD6F000EC621BE6F000ED9
:100CA000C721BF6F6100E0F6C0F56100E4F6C1F551
:100CB0006100E8F6C2F56100ECF6C3F56100F0F6FC
:100CC000C4F56100F4F6C5F56100F8F6C6F56100FB
:100CD000FCF6C7F5320E76EF86F0D890C733C633F0
:100CE000C533C433C333C233C133C033E82E6DEFD1
:100CF00086F0610000F72FF5610008F730F512006B
:100D0000000E326E0501CBBF8AEF86F088EF86F0C9
:100D100094EF86F0CB1FCA1FC91FC86D000EC923F0
:100D2000CA23CB23010E326ECFBF9BEF86F099EF23
:100D300086F0A3EF86F0CF1FCE1FCD1FCC6D000E27
:100D4000CD23CE23CF23CC51CD11CE11CF11D8B48A
:100D5000ACEF86F0AEEF86F0DEEF86F0010E316E7E
:100D6000B8EF86F0D890CC37CD37CE37CF37312A91
:100D7000CFAFBDEF86F0BFEF86F0B2EF86F0CC517B
:100D8000C85DCD51C959CE51CA59CF51CB59D8A000
:100D9000CCEF86F0CEEF86F0D6EF86F0CC51C85F70
:100DA000CD51C95BCE51CA5BCF51CB5BD890CF330D
:100DB000CE33CD33CC33312EBFEF86F03250D8B4A2
:100DC000E4EF86F0E6EF86F0EEEF86F0CB1FCA1F69
:100DD000C91FC86D000EC923CA23CB23610020F7A9
:100DE000C8F5610024F7C9F5610028F7CAF561006C
:100DF0002CF7CBF51200000E1C6E18BE04EF87F026
:100E000002EF87F00AEF87F0176C181ED8B0182A87
:100E1000010E1C6E1ABE11EF87F00FEF87F015EF71
:100E200087F0196C1A1ED8B01A2A19501A10D8B4A3
:100E30001CEF87F01EEF87F042EF87F0010E1B6E6C
:100E400026EF87F0D89019361A361B2A1AAE2BEFE8
:100E500087F02DEF87F022EF87F01950175C1A50BA
:100E60001858D8A036EF87F038EF87F03CEF87F0BE
:100E70001950175E1A50185AD8901A3219321B2E70
:100E80002DEF87F01C50D8B448EF87F04AEF87F079
:100E90004EEF87F0176C181ED8B0182A61005CF46A
:100EA00017F5610060F418F5120021EE27F1070E26
:100EB000DE6AE806FDE217A060EF87F062EF87F0D8
:100EC00072EF87F01F502726205028222150292218
:100ED00022502A2223502B2224502C2225502D220E
:100EE00026502E22D8901F36203621362236233621
:100EF000243625362636D8901E321D321C321B323F
:100F00001A321932183217321750181019101A10D5
:100F10001B101C101D101E10D8A491EF87F093EF2A
:100F200087F05BEF87F061009CF417F56100A0F497
:100F300018F56100A4F419F56100A8F41AF5610030
:100F4000ACF41BF56100B0F41CF56100B4F41DF5C0
:100F50006100B8F41EF51200000E1F6E000E206E28
:100F6000000E216E000E226E1B501C101D101E1054
:100F7000D8B4BDEF87F0BFEF87F0F5EF87F0010E33
:100F8000236EC9EF87F0D8901B361C361D361E36EF
:100F9000232A1EAECEEF87F0D0EF87F0C3EF87F0A5
:100FA000D8901F362036213622361B50175C1C5035
:100FB00018581D5019581E501A58D8A0E2EF87F043
:100FC000E4EF87F0EDEF87F01B50175E1C50185AC6
:100FD0001D50195A1E501A5A1F80D8901E321D32A9
:100FE0001C321B32232ED0EF87F061007CF417F502
:100FF000610080F418F5610084F419F5610088F44B
:101000001AF51200040EF66E140EF76E010EF86E4D
:1010100001EEE0F110EE0AF00900F5C4EEF4E5503F
:10102000E150FAE11C0EF66E140EF76E010EF86E2A
:1010300009006100D4F349F501EEF1F111EE40F23F
:10104000EE6AE550E150FCE1E250FAE101EE60F1B8
:10105000600EEE6AE806FDE101EE33F1150EEE6A70
:10106000E806FDE10401080E5D6F000E5E6F000EE4
:101070005F6F000195EF89F0000E1F6E000E206E6D
:10108000000E216E000E226E17A049EF88F04BEF84
:1010900088F053EF88F01B501F261C5020221D5053
:1010A00021221E502222D8901B361C361D361E3699
:1010B000D8901A32193218321732175018101910E6
:1010C0001A10D8A466EF88F068EF88F044EF88F033
:1010D00061007CF417F5610080F418F5610084F478
:1010E00019F5610088F41AF51200000EBE6E000EAC
:1010F000BF6E000EC06E0B0EC66EC00EC76E000E29
:10110000C86E0401106908690069000E216F000EA5
:10111000096F000E016F000E116F000E0201896F42
:10112000000E886F000E876F000E866F000E0401A0
:10113000226F000E026F000E0A6F000E126F03691D
:101140000B69136904690C691469080E246F3F0E5A
:101150000201056F1200000E0301D96F000EDA6F55
:10116000000EDB6F000EDC6F000EDF6F000EE06F15
:10117000000EE56F000EE76F000EEC6F000EEE6FD5
:10118000000EEF6F000EF06F000EF16F000EF26FA9
:10119000000EF46F000EF56F000EF66F000EF76F85
:1011A000000EF86F000EF96F3F0EFA6F840EF36FAA
:1011B00012006100D8F313F56100DCF314F561004F
:1011C000E0F315F56100D4F316F5A1A8EAEF88F075
:1011D000ECEF88F0F5EF88F0B1A8F1EF88F0F3EFCD
:1011E00088F0F5EF88F0B4EC89F0610058F4F5F47C
:1011F000610054F4F8F4610050F4F7F461004CF429
:10120000F6F41100000E03011F6F000E206F020E96
:10121000216FF30E1D6F800E1C6FB1981C51600082
:1012200074FC1AF51B6A610068F41BF51A6A1A103F
:101230000501EF6F1B50F06FA1881A0E176E140E88
:10124000186E010E196ED6EC89F0010E03011E6FA7
:1012500012000501EA51EB11EC11D8B432EF89F01C
:1012600034EF89F041EF89F002D841EF89F00500B1
:10127000FA6EEA51FD6EEB51FE6EEC51FF6EFA50C4
:10128000120012000BEC8AF083EC89F075EC88F008
:10129000A6EC89F0E0EC89F007EC8AF0EAEC89F042
:1012A000ABEC88F070EC89F0FCEC89F002EC89F092
:1012B000120003011EA55FEF89F061EF89F06AEF6C
:1012C00089F01E9102501D6F610004F41CF31E8111
:1012D0006FEF89F002501D6F610004F41CF31200DF
:1012E000000E0401466F020E476F000E426F000EA3
:1012F000416F000E406F000E456F000E446F440EAC
:10130000436F468F1200000E0001606F000E616F88
:10131000000E636F000E646F000E656F000E666F47
:10132000000E676F000E686F120042EC89F0000E2D
:10133000176E000E186E010E196ED6EC89F0D68E5F
:1013400023EC83F0A0EF89F00DEF00F0600E0001B8
:10135000AD6F000EAF6F000EB36F080EB16F000ED1
:10136000B06F000EAC6F1200B1986100BCF701F5D0
:101370006100C0F702F559EC89F029EC89F0120000
:101380000301F3A1C6EF89F0C9EF89F0010ECAEF9E
:1013900089F0000E12000301EB511A6E196AEA512E
:1013A0001924176E000E1A20186E120061005CF4EA
:1013B000EAF5610060F4EBF5610064F4ECF512000D
:1013C000900E0001746F000E756F010E766F060EA1
:1013D000776F1200800E0001706F000E716F060EA5
:1013E000726F010E736F1200176E61005CF4ECF304
:1013F0000301F38FF3811200A80E00017F6F000E2E
:101400007D6F120001000000010001000000880E45
:0D1410000301D76F1200D69A120012000AD5
:020000040020DA
:10000000FF0FFF0FFF0FFF0FFF0FFF0FFF0FFF0F80
:10001000FF0FFF0FFF0FFF0FFF0FFF0FFF0FFF0F70
:020000040030CA
:0A0000008CFFF7FF9FFFFFFFFFFFDB
:00000001FF
