:020000040000FA
:040000000DEF00F010
:0400080061EF88F02C
:06001800FF0089EF87F0F4
:10B7DE00000000000000000000000000000000005B
:10B7EE00000000000000000000000000000000004B
:10B7FE00000000000000000000000000000000003B
:10B80E00000000000000000000000000000000002A
:10F7DE0000FF0FFE0FFE0FFE0FFE0FFE0FFD0FFDC3
:10F7EE000FFC0FFB0FFB0FFA0FF90FF80FF70FF6C9
:10F7FE000FF50FF30FF20FF10FEF0FEE0FEC0FEA05
:10F80E000FE80FE60FE40FE20FE00FDE0FDC0FDA6A
:10F81E000FD70FD50FD20FCF0FCD0FCA0FC70FC4F3
:10F82E000FC10FBE0FBB0FB80FB40FB10FAD0FAAA4
:10F83E000FA60FA30F9F0F9B0F970F930F8F0F8B7B
:10F84E000F870F830F7E0F7A0F750F710F6C0F6777
:10F85E000F630F5E0F590F540F4F0F4A0F450F3F97
:10F86E000F3A0F350F2F0F290F240F1E0F180F13DE
:10F87E000F0D0F070F010FFB0EF50EEE0EE80EE249
:10F88E000EDB0ED50ECE0EC80EC10EBA0EB30EACDA
:10F89E000EA50E9E0E970E900E890E820E7A0E7388
:10F8AE000E6C0E640E5C0E550E4D0E450E3E0E3653
:10F8BE000E2E0E260E1E0E160E0D0E050EFD0DF53F
:10F8CE000DEC0DE40DDB0DD30DCA0DC10DB80DB051
:10F8DE000DA70D9E0D950D8C0D830D7A0D710D6777
:10F8EE000D5E0D550D4B0D420D380D2F0D250D1CBA
:10F8FE000D120D080DFE0CF50CEB0CE10CD70CCD1A
:10F90E000CC30CB90CAE0CA40C9A0C900C850C7B91
:10F91E000C710C660C5C0C510C460C3C0C310C261C
:10F92E000C1C0C110C060CFB0BF00BE50BDA0BCFC1
:10F93E000BC40BB90BAE0BA30B980B8C0B810B7678
:10F94E000B6A0B5F0B540B480B3D0B310B260B1A3E
:10F95E000B0F0B030BF70AEC0AE00AD40AC80ABD18
:10F96E000AB10AA50A990A8D0A810A750A690A5D01
:10F97E000A510A450A390A2D0A210A150A090AFDF1
:10F98E0009F109E409D809CC09C009B309A7099BF3
:10F99E00098E098209760969095D095109440938F8
:10F9AE00092B091F0913090609FA08ED08E108D405
:10F9BE0008C808BB08AF08A208960889087D087019
:10F9CE0008630857084A083E083108250818080C2D
:10F9DE0008FF07F207E607D907CD07C007B407A748
:10F9EE00079B078E078107750768075C074F07435C
:10F9FE000736072A071D0711070407F806EB06DF6F
:10FA0E0006D306C606BA06AD06A106950688067C7E
:10FA1E00067006630657064B063E06320626061A83
:10FA2E00060D060106F505E905DD05D105C505B985
:10FA3E0005AD05A105950589057D05710565055978
:10FA4E00054D05410536052A051E0512050705FB60
:10FA5E0004EF04E404D804CD04C104B604AA049F40
:10FA6E0004940488047D04720466045B0450044507
:10FA7E00043A042F04240419040E040304F803EDBD
:10FA8E0003E203D803CD03C203B803AD03A2039868
:10FA9E00038D03830379036E0364035A03500345F6
:10FAAE00033B03310327031D03130309030003F66E
:10FABE0002EC02E202D902CF02C602BC02B302A9D4
:10FACE0002A00297028D0284027B0272026902601A
:10FADE000257024E0246023D0234022B0223021A44
:10FAEE0002120209020102F901F101E801E001D856
:10FAFE0001D001C801C001B901B101A901A2019A49
:10FB0E000192018B0184017C0175016E0167016018
:10FB1E0001590152014B0144013D013601300129C9
:10FB2E000123011C011601100109010301FD00F75B
:10FB3E0000F100EB00E600E000DA00D500CF00C9CE
:10FB4E0000C400BF00B900B400AF00AA00A500A019
:10FB5E00009B00970092008D008900840080007B3E
:10FB6E0000770073006F006B00670063005F005B3F
:10FB7E00005800540051004D004A0046004300401A
:10FB8E00003D003A003700340031002F002C0029D0
:10FB9E000027002400220020001E001C001A00185E
:10FBAE000016001400120010000F000D000C000BC8
:10FBBE00000900080007000600050004000300030A
:10FBCE000002000100010000000000000000000023
:10FBDE000000000000000000000000000001000115
:10FBEE0000020003000300040005000600070008E1
:10FBFE000009000B000C000D000F00100012001485
:10FC0E0000160018001A001C001E002000220024FE
:10FC1E0000270029002C002F003100340037003A55
:10FC2E00003D004000430046004A004D0051005484
:10FC3E000058005B005F00630067006B006F00738D
:10FC4E000077007B008000840089008D0092009771
:10FC5E00009B00A000A500AA00AF00B400B900BF31
:10FC6E0000C400C900CF00D500DA00E000E600EBCA
:10FC7E0000F100F700FD0003010901100116011C3F
:10FC8E000123012901300136013D0144014B01528E
:10FC9E00015901600167016E0175017C0184018BC0
:10FCAE000192019A01A201A901B101B901C001C8D5
:10FCBE0001D001D801E001E801F101F901010209C9
:10FCCE000212021A0223022B0234023D0246024E97
:10FCDE000257026002690272027B0284028D029751
:10FCEE0002A002A902B302BC02C602CF02D902E2EE
:10FCFE0002EC02F6020003090313031D032703316E
:10FD0E00033B03450350035A0364036E03790383D5
:10FD1E00038D039803A203AD03B803C203CD03D82A
:10FD2E0003E203ED03F80303040E04190424042F65
:10FD3E00043A04450450045B04660472047D04888E
:10FD4E000494049F04AA04B604C104CD04D804E4A8
:10FD5E0004EF04FB04070512051E052A05360541AE
:10FD6E00054D055905650571057D0589059505A1A5
:10FD7E0005AD05B905C505D105DD05E905F5050195
:10FD8E00060D061A06260632063E064B0657066373
:10FD9E000670067C0688069506A106AD06BA06C64E
:10FDAE0006D306DF06EB06F806040711071D072A21
:10FDBE0007360743074F075C076807750781078EED
:10FDCE00079B07A707B407C007CD07D907E607F2B9
:10FDDE0007FF070C081808250831083E084A08577F
:10FDEE0008630870087D0889089608A208AF08BB4A
:10FDFE0008C808D408E108ED08FA08060913091F17
:10FE0E00092B093809440951095D096909760982E6
:10FE1E00098E099B09A709B309C009CC09D809E4C1
:10FE2E0009F109FD09090A150A210A2D0A390A459F
:10FE3E000A510A5D0A690A750A810A8D0A990AA58C
:10FE4E000AB10ABD0AC80AD40AE00AEC0AF70A0384
:10FE5E000B0F0B1A0B260B310B3D0B480B540B5F84
:10FE6E000B6A0B760B810B8C0B980BA30BAE0BB99D
:10FE7E000BC40BCF0BDA0BE50BF00BFB0B060C11C7
:10FE8E000C1C0C260C310C3C0C460C510C5C0C66FC
:10FE9E000C710C7B0C850C900C9A0CA40CAE0CB94E
:10FEAE000CC30CCD0CD70CE10CEB0CF50CFE0C08B6
:10FEBE000D120D1C0D250D2F0D380D420D4B0D5530
:10FECE000D5E0D670D710D7A0D830D8C0D950D9ECA
:10FEDE000DA70DB00DB80DC10DCA0DD30DDB0DE480
:10FEEE000DEC0DF50DFD0D050E0D0E160E1E0E264E
:10FEFE000E2E0E360E3E0E450E4D0E550E5C0E643B
:10FF0E000E6C0E730E7A0E820E890E900E970E9E4A
:10FF1E000EA50EAC0EB30EBA0EC10EC80ECE0ED579
:10FF2E000EDB0EE20EE80EEE0EF50EFB0E010F07C7
:10FF3E000F0D0F130F180F1E0F240F290F2F0F3534
:10FF4E000F3A0F3F0F450F4A0F4F0F540F590F5EC9
:10FF5E000F630F670F6C0F710F750F7A0F7E0F8384
:10FF6E000F870F8B0F8F0F930F970F9B0F9F0FA363
:10FF7E000FA60FAA0FAD0FB10FB40FB80FBB0FBE68
:10FF8E000FC10FC40FC70FCA0FCD0FCF0FD20FD592
:10FF9E000FD70FDA0FDC0FDE0FE00FE20FE40FE6E4
:10FFAE000FE80FEA0FEC0FEE0FEF0FF10FF20FF35A
:10FFBE000FF50FF60FF70FF80FF90FFA0FFB0FFBF8
:10FFCE000FFC0FFD0FFD0FFE0FFE0FFE0FFE0FFEBF
:10FFDE000F10204080000000000000000000010211
:10FFEE000408102080400000000000000001020400
:02FFFE000800F9
:020000040001F9
:100000000501A851D8B407EF80F009EF80F01CEF8C
:1000100080F0610020F63DF5610024F63EF5A75121
:10002000D8B415EF80F018EF80F0010E19EF80F0D2
:10003000000EA76F000EA86FA751100D600EF324DD
:10004000D96E050EF420DA6EDE502726DD50282208
:100050002704200E2858D8A030EF80F032EF80F02F
:1000600036EF80F0000E275E200E285AA751100DA3
:10007000620EF324D96E050EF420DA6EDE502926C6
:10008000DD502A222904200E2A58D8A04AEF80F0F9
:100090004CEF80F050EF80F0000E295E200E2A5ABF
:1000A000A751100D640EF324D96E050EF420DA6EFC
:1000B000DE502B26DD502C222B04200E2C58D8A0ED
:1000C00064EF80F066EF80F06AEF80F0000E2B5E48
:1000D000200E2C5AA751100D660EF324D96E050E72
:1000E000F420DA6EDE502D26DD502E222D04200E57
:1000F0002E58D8A07EEF80F080EF80F084EF80F063
:10010000000E2D5E200E2E5AA751100D680EF324FE
:10011000D96E050EF420DA6EDE502F26DD50302227
:100120002F04200E3058D8A098EF80F09AEF80F07E
:100130009EEF80F0000E2F5E200E305AA751100D5A
:100140006A0EF324D96E050EF420DA6EDE503126E5
:10015000DD5032223104200E3258D8A0B2EF80F0A8
:10016000B4EF80F0B8EF80F0000E315E200E325A0E
:10017000A751100D6C0EF324D96E050EF420DA6E23
:10018000DE503326DD5034223304200E3458D8A0FC
:10019000CCEF80F0CEEF80F0D2EF80F0000E335E37
:1001A000200E345AA751100D6E0EF324D96E050E91
:1001B000F420DA6EDE503526DD5036223504200E6E
:1001C0003658D8A0E6EF80F0E8EF80F0ECEF80F052
:1001D000000E355E200E365A21EE35F1610078F3BF
:1001E00001F5610074F302F5D89002320132D89023
:1001F00002320132D89002320132D89001360236F2
:10020000DF0E0124F66EF70E0220F76EF86A000E7C
:10021000F82209006100D4F303F509006100D4F36A
:1002200004F521EE31F1610078F305F5610074F316
:1002300006F5D89006320532D89006320532D890AD
:1002400006320532D89005360636DF0E0524F66EE6
:10025000F70E0620F76EF86A000EF822090061001A
:10026000D4F307F509006100D4F308F521EE2DF170
:10027000610078F309F5610074F30AF5D8900A3249
:100280000932D8900A320932D8900A320932D8900D
:1002900009360A36DF0E0924F66EF70E0A20F76ECD
:1002A000F86A000EF82209006100D4F30BF509008A
:1002B0006100D4F30CF521EE29F1610078F30DF51E
:1002C000610074F30EF5D8900E320D32D8900E32D4
:1002D0000D32D8900E320D32D8900D360E36DF0E1C
:1002E0000D24F66EF70E0E20F76EF86A000EF82257
:1002F00009006100D4F30FF509006100D4F310F593
:1003000021EE33F1610078F311F5610074F312F519
:10031000D89012321132D89012321132D890123253
:100320001132D89011361236DF0E1124F66EF70E08
:100330001220F76EF86A000EF82209006100D4F36B
:1003400013F509006100D4F314F521EE2FF16100DB
:1003500078F315F5610074F316F5D890163215325E
:10036000D89016321532D89016321532D8901536EC
:100370001636DF0E1524F66EF70E1620F76EF86AA5
:10038000000EF82209006100D4F317F5090061009E
:10039000D4F318F521EE2BF1610078F319F5610023
:1003A00074F31AF5D8901A321932D8901A321932D9
:1003B000D8901A321932D89019361A36DF0E19240D
:1003C000F66EF70E1A20F76EF86A000EF822090092
:1003D0006100D4F31BF509006100D4F31CF5610042
:1003E0009CF41DF56100A0F41EF5D8901E321D325C
:1003F000D8901E321D32D8901E321D32D8901D3634
:100400001E36DF0E1D24F66EF70E1E20F76EF86AFC
:10041000000EF82209006100D4F31FF50900610005
:10042000D4F320F51B501F261C50202217501F26E6
:100430001850202213501F26145020220F501F2620
:10044000105020220B501F260C50202207501F2630
:100450000850202203501F2604502022D89020301C
:10046000216E1F30416E610084F442F5D8903B3418
:10047000D96E3C34DA6E1B0ED926090EDA226100E1
:1004800078F301F5610074F302F5D8900230046E40
:100490000130036E0350412604504222D8903B3471
:1004A000D96E3C34DA6E1B0ED926090EDA226100B1
:1004B00004F5DEF4610008F5DDF4D8903934D96E26
:1004C0003A34DA6EFB0ED926050EDA22610078F393
:1004D00001F5610074F302F5D8900230046E01302A
:1004E000036E0350412604504222D8903934D96E0D
:1004F0003A34DA6EFB0ED926050EDA22610004F5D5
:10050000DEF4610008F5DDF43B4A3C2A900E3B5CCA
:10051000010E3C58D8A08FEF82F091EF82F095EF5A
:1005200082F0000E3C6E000E3B6E394A3A2A3A5079
:1005300009E1F70E395CD8A0A0EF82F0A2EF82F0BB
:10054000A6EF82F0000E3A6E000E396E3D50016E3D
:100550003E50026E036A046A0150905D0250915948
:100560000350925904509359D8B0B9EF82F0BBEFC1
:1005700082F0C3EF82F0000E9027000E9123000E50
:100580009223100E93233D50016E3E50026E036A7B
:10059000046A0150905F0250915B0350925B0450DB
:1005A000935B010EEB27000EEC23ED23EE230001FD
:1005B00070ADDDEF82F0DFEF82F004EF83F04A50A0
:1005C000D8A4E5EF82F0E7EF82F004EF83F0EBC50B
:1005D000F1F5ECC5F2F5EDC5F3F5EEC5F4F5010E58
:1005E0000501EB6F000EEC6F000EED6F000EEE6F6D
:1005F000B12B070EB119D8A400EF83F002EF83F0FE
:1006000004EF83F0000EB16F0501A451D8A40BEFE5
:1006100083F00DEF83F010EF83F0425000017D6F07
:100620000001000E70BD010E4A6E70AD02D0BF8A8F
:1006300001D0BF9A12006100C8F6DBF5010E05017A
:10064000DC6F000EDD6FDB2B29EF83F0D890DC37F9
:10065000DD37DB2F26EF83F0610070F7F8F56100DE
:1006600074F7F9F56100C4F6DBF5010E0501DC6FE6
:10067000DB2B3DEF83F0D890DC37DB2F3BEF83F0B3
:100680000501DC51FA6FA551D8B449EF83F04BEF67
:1006900083F050EF83F0000EFA6FFAC5F8F5F96BAE
:1006A000000170BD56EF83F05BEF83F0200E050173
:1006B000DB6F5DEF83F00501DB6BDB51BF6E61002B
:1006C000E0F7DBF56100E4F7DCF5040EDD6FD890B0
:1006D000DC33DB33DD2F67EF83F0DB511F0BBF1201
:1006E0006100E8F7DBF5D890DB33D890DB33D890A6
:1006F000DB330F0EDB176100E0F7DCF50F0EDC17C4
:10070000DC39F00BDB11C06E040EFA19D8B48BEF94
:1007100083F08FEF83F0DB6BDB2B91EF83F0050130
:10072000DB6BDB3BDB47DB47BE50DB19BF0BDB1969
:10073000BE6E020EFA19D8B4A0EF83F0A4EF83F0D6
:10074000DB6BDB2BA6EF83F00501DB6BDB33DB33ED
:10075000BE50DB197F0BDB19BE6EFA05D8B4B3EFC0
:1007600083F0B7EF83F0DB6BDB2BB9EF83F0050190
:10077000DB6BDB3BDB47BE50DB19DF0BDB19BE6EEF
:1007800059EC89F00009D8B4C8EF83F0CAEF83F0C0
:10079000A2EF84F02FEC89F005016100CCF6E7F5BB
:1007A0006100D0F6E8F5E96BEA6B61009CF7B3F500
:1007B0006100A0F7B4F56100A4F7B5F56100A8F7F2
:1007C000B6F561009CF7B7F56100A0F7B8F56100D8
:1007D000A4F7B9F56100A8F7BAF5C3EC87F00D0EE0
:1007E000F8EF83F00501D890B633B533B433B333A3
:1007F000E82EF2EF83F06100CCF6E7F56100D0F669
:10080000E8F56100D4F6E9F56100D8F6EAF5610093
:100810009CF7B3F56100A0F7B4F56100A4F7B5F556
:100820006100A8F7B6F561009CF7B7F56100A0F785
:10083000B8F56100A4F7B9F56100A8F7BAF5C3EC03
:1008400087F00D0E2AEF84F00501D890B633B5334A
:10085000B433B333E82E24EF84F06100CCF6E7F52F
:100860006100D0F6E8F56100D4F6E9F56100D8F64C
:10087000EAF561009CF7B3F56100A0F7B4F56100FB
:10088000A4F7B5F56100A8F7B6F561009CF7B7F5D8
:100890006100A0F7B8F56100A4F7B9F56100A8F709
:1008A000BAF5C3EC87F00D0E5CEF84F00501D8902B
:1008B000B633B533B433B333E82E56EF84F061006A
:1008C000CCF6E7F56100D0F6E8F56100D4F6E9F57D
:1008D0006100D8F6EAF561009CF7DBF56100A0F74E
:1008E000DCF56100A4F7DDF56100A8F7DEF5D8902E
:1008F000DE33DD33DC33DB3361006CF7E7F56100B9
:1009000070F7E8F5610074F7E9F5610078F7EAF54A
:100910000A0EE725946F000EE821956F000EE9217D
:10092000966F000EEA21976F000E0401456F0501D6
:1009300095510F0B0401446F610050F643F4000E13
:1009400082EC89F00501A851D8A4A9EF84F0ABEF9F
:1009500084F0F4EF85F0000174ADB1EF84F0B3EFF3
:1009600084F0BEEF84F00501A651D8A4BAEF84F05C
:10097000BCEF84F0BEEF84F0A24BA32B0001000E6D
:1009800074BD010E0501A66FF5EC85F061002CF732
:10099000D5F5610030F7D6F54E0E0501D86F200E63
:1009A000D76F7FEC86F00501A251D55DA351D659D2
:1009B000D8B0DDEF84F0DFEF84F0E5EF84F0010ED6
:1009C000A56F010EA46FEDEF84F0000EA46F00017F
:1009D000000E74BD010E0501A56F92C58CF593C57F
:1009E0008DF58E6B8F6B000EE66F000EE56F61006C
:1009F00094F7DBF5610098F7DCF5090ED890DB374A
:100A0000DC37E82EFEEF84F061006CF7DDF5610065
:100A100070F7DEF5000EDEBFFF0EDF6FE06F8C516A
:100A2000DD25E16F8D51DE21E26F8E51DF21E36F15
:100A30008F51E021E46FFF0EE115846F0F0EE21578
:100A4000856F000EE315866F000EE415876F610059
:100A500010F6B3F5610014F6B4F5610018F6B5F5BB
:100A600061001CF6B6F5610010F6B7F5610014F6EA
:100A7000B8F5610018F6B9F561001CF6BAF5C3ECDB
:100A800087F00D0E4AEF85F00501D890B633B533E7
:100A9000B433B333E82E44EF85F06100CCF684F52F
:100AA0006100D0F685F56100D4F686F56100D8F6D0
:100AB00087F5140E8425DB6F000E8521DC6FA751AE
:100AC000D8B465EF85F068EF85F0010E69EF85F029
:100AD000000EDD6FDE6BDD3BDE3BF00EDE17DD5121
:100AE0000F0BDE13F00EDD17600EDF6F050EE06FEB
:100AF000DD51DF27DE51E023D890E535D96EE635AC
:100B0000DA6EDF51D926E051DA2261006CF7DEF4AB
:100B1000610070F7DDF4E54BE62BE6BF99EF85F059
:100B2000E65109E1080EE55DD8A099EF85F09BEF4D
:100B300085F0F7EF84F0070E8C158C6F000E8D1585
:100B40008D6F000E8E158E6F000E8F158F6FA0515A
:100B5000DB6FA151DC6FDD6BDE6B8C51DB5D8D518A
:100B6000DC598E51DD598F51DE59D8B0BAEF85F07E
:100B7000BCEF85F0CBEF85F0010EB225D56FD66BBB
:100B8000000ED623000ED86F090ED76F7FEC86F0CB
:100B90000501D551B26F8CC5A0F58DC5A1F5000E2C
:100BA000B36F880EB46F130EB56F000EB66F610091
:100BB000C4F7B7F56100C8F7B8F56100CCF7B9F52F
:100BC0006100D0F7BAF532EC87F06100CCF688F519
:100BD0006100D0F689F56100D4F68AF56100D8F697
:100BE0008BF5010E0501A86F12006100A4F6B3F5A4
:100BF0006100A8F6B4F56100ACF6B5F56100B0F699
:100C0000B6F56100B4F6B7F56100B8F6B8F5610065
:100C1000BCF6B9F56100C0F6BAF52D0E0501BB6F43
:100C20007F0EBC6F950EBD6F4C0EBE6F2D0EBF6F4D
:100C3000F40EC06F510EC16F580EC26FDAEC86F021
:100C40006100CCF6CDF56100D0F6CEF56100D4F6AA
:100C5000CFF56100D8F6D0F56100DCF6D1F5610082
:100C6000E0F6D2F56100E4F6D3F56100E8F6D4F5DC
:100C7000010E0501CD25A96F000ECE21AA6F000E31
:100C8000CF21AB6F000ED021AC6F000ED121AD6F24
:100C9000000ED221AE6F000ED321AF6F000ED42113
:100CA000B06F6100A4F6CDF56100A8F6CEF5610045
:100CB000ACF6CFF56100B0F6D0F56100B4F6D1F531
:100CC0006100B8F6D2F56100BCF6D3F56100C0F65C
:100CD000D4F5320E75EF86F0D890D433D333D233B7
:100CE000D133D033CF33CE33CD33E82E6CEF86F013
:100CF000610034F7CBF561003CF7CCF51200000E33
:100D00000501DA6FD6BF89EF86F087EF86F08FEFA7
:100D100086F0D56DD61FD8B0D62B010EDA6FD8BFAE
:100D200096EF86F094EF86F09AEF86F0D76DD81F95
:100D3000D8B0D82BD751D811D8B4A1EF86F0A3EFF3
:100D400086F0C7EF86F0010ED96FABEF86F0D89032
:100D5000D737D837D92BD8AFB0EF86F0B2EF86F0BF
:100D6000A7EF86F0D751D55DD851D659D8A0BBEFA3
:100D700086F0BDEF86F0C1EF86F0D751D55FD85130
:100D8000D65BD890D833D733D92FB2EF86F0DA516B
:100D9000D8B4CDEF86F0CFEF86F0D3EF86F0D56DE7
:100DA000D61FD8B0D62B610054F7D5F5610058F79F
:100DB000D6F5120021EEC3F1070EDE6AE806FDE269
:100DC0000501B3A1E6EF86F0E8EF86F0F8EF86F0D4
:100DD000BB51C327BC51C423BD51C523BE51C6233B
:100DE000BF51C723C051C823C151C923C251CA230F
:100DF000D890BB37BC37BD37BE37BF37C037C137D8
:100E0000C237D890BA33B933B833B733B633B53302
:100E1000B433B333B351B411B511B611B711B8111E
:100E2000B911BA11D8A417EF87F019EF87F0E0EFE6
:100E300086F061000CF7B3F5610010F7B4F56100BE
:100E400014F7B5F5610018F7B6F561001CF7B7F5B2
:100E5000610020F7B8F5610024F7B9F5610028F7C3
:100E6000BAF51200000E0501BB6F000EBC6F000E3C
:100E7000BD6F000EBE6FB751B811B911BA11D8B419
:100E800044EF87F046EF87F07CEF87F0010EBF6FED
:100E900050EF87F0D890B737B837B937BA37BF2B8C
:100EA000BAAF55EF87F057EF87F04AEF87F0D89049
:100EB000BB37BC37BD37BE37B751B35DB851B45936
:100EC000B951B559BA51B659D8A069EF87F06BEF4F
:100ED00087F074EF87F0B751B35FB851B45BB95185
:100EE000B55BBA51B65BBB81D890BA33B933B8336E
:100EF000B733BF2F57EF87F06100ECF6B3F5610011
:100F0000F0F6B4F56100F4F6B5F56100F8F6B6F563
:100F10001200220EF66E130EF76E010EF86E01EE41
:100F2000EBF110EE0AF00900F5C4EEF4E550E150E3
:100F3000FAE13A0EF66E130EF76E010EF86E090026
:100F40006100D4F34DF501EEFBF111EE40F2EE6AD3
:100F5000E550E150FCE1E250FAE101EE60F1530EA0
:100F6000EE6AE806FDE101EE27F1240EEE6AE806DE
:100F7000FDE10401080E5D6F000E5E6F000E5F6FF5
:100F800000010BEF89F0000E0501BB6F000EBC6F76
:100F9000000EBD6F000EBE6FB3A1D1EF87F0D3EF8F
:100FA00087F0DBEF87F0B751BB27B851BC23B951AD
:100FB000BD23BA51BE23D890B737B837B937BA373F
:100FC000D890B633B533B433B333B351B411B5118C
:100FD000B611D8A4EEEF87F0F0EF87F0CCEF87F0F2
:100FE0006100ECF6B3F56100F0F6B4F56100F4F6DB
:100FF000B5F56100F8F6B6F51200000EBE6E000EF3
:10100000BF6E000EC06E0B0EC66EC00EC76E000E19
:10101000C86E0401106908690069000E216F000E96
:10102000096F000E016F000E116F000E0201896F33
:10103000000E886F000E876F000E866F000E040191
:10104000226F000E026F000E0A6F000E126F03690E
:101050000B69136904690C691469080E246F3F0E4B
:101060000201056F1200000E0301D96F000EDA6F46
:10107000000EDB6F000EDC6F000EDF6F000EE06F06
:10108000000EE56F000EE76F000EEC6F000EEE6FC6
:10109000000EEF6F000EF06F000EF16F000EF26F9A
:1010A000000EF46F000EF56F000EF66F000EF76F76
:1010B000000EF86F000EF96F3F0EFA6F840EF36F9B
:1010C00012006100D8F323F56100DCF324F5610020
:1010D000E0F325F56100D4F326F5A1A872EF88F0BE
:1010E00074EF88F07DEF88F0B1A879EF88F07BEF9E
:1010F00088F07DEF88F04DEC89F0610098F4F5F40C
:10110000610094F4F8F4610090F4F7F461008CF459
:10111000F6F41100000E03011F6F000E206F020E87
:10112000216FF30E1D6F800E1C6FB1981C51600073
:1011300074FCB6F50501B76B6100D8F6B7F5B66B70
:10114000B6114B6EB7514C6EA188380EB36F130EAB
:10115000B46F010EB56F64EC89F0010E03011E6FD0
:1011600012000501F551F611F711D8B4BAEF88F065
:10117000BCEF88F0C9EF88F002D8C9EF88F005000D
:10118000FA6EF551FD6EF651FE6EF751FF6EFA5094
:10119000120012009AEC89F01DEC89F0FDEC87F04A
:1011A0003FEC89F06EEC89F096EC89F078EC89F0F0
:1011B00033EC88F0F8EC88F08BEC89F08AEC88F05E
:1011C000120003011EA5E7EF88F0E9EF88F0F2EFC7
:1011D00088F01E9102501D6F610004F41CF31E8103
:1011E000F7EF88F002501D6F610004F41CF3120049
:1011F000000E0401466F020E476F000E426F000E94
:10120000416F000E406F000E456F000E446F440E9C
:10121000436F468F1200CAEC88F0000E0501B36FD1
:10122000000EB46F010EB56F64EC89F0D68E1BEC26
:1012300083F017EF89F00DEF00F0000E0001606FF2
:10124000000E616F000E636F000E646F000E656F1D
:10125000000E666F000E676F000E686F12000301CC
:10126000EB510501B66FB56B0301EA510501B525D8
:10127000B36F0301000E0501B621B46F1200600EBA
:101280000001AD6F000EAF6F000EB36F080EB16FAF
:10129000000EB06F000EAC6F1200B19861002CF51B
:1012A00001F5610030F502F5E1EC88F0B1EC88F071
:1012B00012000301F3A15FEF89F062EF89F0010EE4
:1012C00063EF89F0000E12006100CCF6F5F56100C5
:1012D000D0F6F6F56100D4F6F7F51200900E000195
:1012E000746F000E756F010E766F060E776F120029
:1012F000800E0001706F000E716F060E726F010E8E
:10130000736F12000501B36F6100CCF6ECF30301BB
:10131000F38FF3811200A80E00017F6F000E7D6F26
:10132000120001000000010001000000880E03010E
:0B133000D76F1200D69A120012000ABC
:020000040020DA
:10000000FF0FFF0FFF0FFF0FFF0FFF0FFF0FFF0F80
:10001000FF0FFF0FFF0FFF0FFF0FFF0FFF0FFF0F70
:020000040030CA
:0A0000008CFFF7FF9FFFFFFFFFFFDB
:00000001FF
